{
  "contractName": "HouseholdContract",
  "abi": [
    {
      "constant": false,
      "inputs": [
        {
          "name": "_factor",
          "type": "uint256"
        }
      ],
      "name": "lowerPrice",
      "outputs": [
        {
          "name": "r_price",
          "type": "uint256"
        }
      ],
      "payable": false,
      "stateMutability": "nonpayable",
      "type": "function"
    },
    {
      "constant": true,
      "inputs": [],
      "name": "getValue",
      "outputs": [
        {
          "name": "val",
          "type": "uint256"
        }
      ],
      "payable": false,
      "stateMutability": "view",
      "type": "function"
    },
    {
      "constant": true,
      "inputs": [],
      "name": "getLowerPriceReq",
      "outputs": [
        {
          "name": "amount",
          "type": "uint256"
        }
      ],
      "payable": false,
      "stateMutability": "view",
      "type": "function"
    },
    {
      "constant": false,
      "inputs": [],
      "name": "setInitPrice",
      "outputs": [],
      "payable": false,
      "stateMutability": "nonpayable",
      "type": "function"
    },
    {
      "constant": false,
      "inputs": [
        {
          "name": "_litre_price",
          "type": "uint8"
        }
      ],
      "name": "setLitrePrice",
      "outputs": [
        {
          "name": "r_litre_price",
          "type": "uint8"
        }
      ],
      "payable": false,
      "stateMutability": "nonpayable",
      "type": "function"
    },
    {
      "constant": true,
      "inputs": [],
      "name": "getTime",
      "outputs": [
        {
          "name": "r_time",
          "type": "uint256"
        }
      ],
      "payable": false,
      "stateMutability": "view",
      "type": "function"
    },
    {
      "constant": false,
      "inputs": [],
      "name": "resetWaterUsage",
      "outputs": [
        {
          "name": "usage",
          "type": "uint256"
        }
      ],
      "payable": false,
      "stateMutability": "nonpayable",
      "type": "function"
    },
    {
      "constant": false,
      "inputs": [
        {
          "name": "_deps",
          "type": "uint8"
        }
      ],
      "name": "setNumberOfDependants",
      "outputs": [
        {
          "name": "deps",
          "type": "uint8"
        }
      ],
      "payable": false,
      "stateMutability": "nonpayable",
      "type": "function"
    },
    {
      "constant": false,
      "inputs": [
        {
          "name": "_factor",
          "type": "uint256"
        }
      ],
      "name": "setLowerPriceReqFactor",
      "outputs": [
        {
          "name": "factor",
          "type": "uint256"
        }
      ],
      "payable": false,
      "stateMutability": "nonpayable",
      "type": "function"
    },
    {
      "constant": false,
      "inputs": [
        {
          "name": "_id",
          "type": "string"
        }
      ],
      "name": "setId",
      "outputs": [
        {
          "name": "r_id",
          "type": "string"
        }
      ],
      "payable": false,
      "stateMutability": "nonpayable",
      "type": "function"
    },
    {
      "constant": true,
      "inputs": [
        {
          "name": "_recommendedDailyUsage",
          "type": "uint256"
        }
      ],
      "name": "getOutstandingBalance",
      "outputs": [
        {
          "name": "balance",
          "type": "uint256"
        }
      ],
      "payable": false,
      "stateMutability": "view",
      "type": "function"
    },
    {
      "constant": false,
      "inputs": [
        {
          "name": "_meterNumber",
          "type": "string"
        }
      ],
      "name": "setMeterNumber",
      "outputs": [
        {
          "name": "r_meterNumber",
          "type": "string"
        }
      ],
      "payable": false,
      "stateMutability": "nonpayable",
      "type": "function"
    },
    {
      "constant": true,
      "inputs": [],
      "name": "getWaterUsage",
      "outputs": [
        {
          "name": "usage",
          "type": "uint256"
        }
      ],
      "payable": false,
      "stateMutability": "view",
      "type": "function"
    },
    {
      "constant": false,
      "inputs": [
        {
          "name": "_usage",
          "type": "uint256"
        }
      ],
      "name": "addWaterUsage",
      "outputs": [
        {
          "name": "usage",
          "type": "uint256"
        }
      ],
      "payable": false,
      "stateMutability": "nonpayable",
      "type": "function"
    },
    {
      "constant": false,
      "inputs": [],
      "name": "setTime",
      "outputs": [],
      "payable": false,
      "stateMutability": "nonpayable",
      "type": "function"
    },
    {
      "constant": false,
      "inputs": [
        {
          "name": "_penaltyFactor",
          "type": "uint8"
        }
      ],
      "name": "setPenaltyFactor",
      "outputs": [
        {
          "name": "factor",
          "type": "uint8"
        }
      ],
      "payable": false,
      "stateMutability": "nonpayable",
      "type": "function"
    },
    {
      "constant": false,
      "inputs": [
        {
          "name": "_recommendedDailyUsage",
          "type": "uint256"
        },
        {
          "name": "_bountyFactor",
          "type": "uint256"
        }
      ],
      "name": "pay",
      "outputs": [
        {
          "name": "r_voucher",
          "type": "uint256"
        },
        {
          "name": "r_amount",
          "type": "uint256"
        }
      ],
      "payable": false,
      "stateMutability": "nonpayable",
      "type": "function"
    },
    {
      "constant": true,
      "inputs": [],
      "name": "getBounty",
      "outputs": [
        {
          "name": "r_bounty",
          "type": "uint256"
        }
      ],
      "payable": false,
      "stateMutability": "view",
      "type": "function"
    },
    {
      "inputs": [],
      "payable": false,
      "stateMutability": "nonpayable",
      "type": "constructor"
    }
  ],
  "bytecode": "0x606060405234156200001057600080fd5b62000030600162000076640100000000026200085b176401000000009004565b506200004f620000aa6401000000000262000803176401000000009004565b6200006f60056200010264010000000002620010e3176401000000009004565b5062000124565b600081600660006101000a81548160ff021916908360ff160217905550600660009054906101000a900460ff169050919050565b600660009054906101000a900460ff1660ff16600360003373ffffffffffffffffffffffffffffffffffffffff1673ffffffffffffffffffffffffffffffffffffffff16815260200190815260200160002081905550565b600081600860006101000a81548160ff021916908360ff160217905550919050565b61188a80620001346000396000f3006060604052600436106100fc576000357c0100000000000000000000000000000000000000000000000000000000900463ffffffff1680630c3986e214610101578063209652551461013857806329bdeeaa1461016157806340e94e8c1461018a578063500fb4891461019f578063557ed1ba146101df57806355e88ec2146102085780637f6da7ff1461023157806387dd962d1461027157806387e4396c146102a85780639b8fec301461037e578063c13e9e9f146103b5578063c613d4fa1461048b578063cae7fbcc146104b4578063d9276a49146104eb578063ea58f11b14610500578063ef48eee614610540578063f49bff7b14610587575b600080fd5b341561010c57600080fd5b61012260048080359060200190919050506105b0565b6040518082815260200191505060405180910390f35b341561014357600080fd5b61014b6106fe565b6040518082815260200191505060405180910390f35b341561016c57600080fd5b610174610708565b6040518082815260200191505060405180910390f35b341561019557600080fd5b61019d610803565b005b34156101aa57600080fd5b6101c3600480803560ff1690602001909190505061085b565b604051808260ff1660ff16815260200191505060405180910390f35b34156101ea57600080fd5b6101f261088f565b6040518082815260200191505060405180910390f35b341561021357600080fd5b61021b6108d6565b6040518082815260200191505060405180910390f35b341561023c57600080fd5b610255600480803560ff16906020019091905050610961565b604051808260ff1660ff16815260200191505060405180910390f35b341561027c57600080fd5b6102926004808035906020019091905050610a0f565b6040518082815260200191505060405180910390f35b34156102b357600080fd5b610303600480803590602001908201803590602001908080601f01602080910402602001604051908101604052809392919081815260200183838082843782019150505050505091905050610a22565b6040518080602001828103825283818151815260200191508051906020019080838360005b83811015610343578082015181840152602081019050610328565b50505050905090810190601f1680156103705780820380516001836020036101000a031916815260200191505b509250505060405180910390f35b341561038957600080fd5b61039f6004808035906020019091905050610b5d565b6040518082815260200191505060405180910390f35b34156103c057600080fd5b610410600480803590602001908201803590602001908080601f01602080910402602001604051908101604052809392919081815260200183838082843782019150505050505091905050610e8e565b6040518080602001828103825283818151815260200191508051906020019080838360005b83811015610450578082015181840152602081019050610435565b50505050905090810190601f16801561047d5780820380516001836020036101000a031916815260200191505b509250505060405180910390f35b341561049657600080fd5b61049e610fc9565b6040518082815260200191505060405180910390f35b34156104bf57600080fd5b6104d56004808035906020019091905050611010565b6040518082815260200191505060405180910390f35b34156104f657600080fd5b6104fe61109d565b005b341561050b57600080fd5b610524600480803560ff169060200190919050506110e3565b604051808260ff1660ff16815260200191505060405180910390f35b341561054b57600080fd5b61056a6004808035906020019091908035906020019091905050611105565b604051808381526020018281526020019250505060405180910390f35b341561059257600080fd5b61059a61175f565b6040518082815260200191505060405180910390f35b6000600660009054906101000a900460ff1660ff16600360003373ffffffffffffffffffffffffffffffffffffffff1673ffffffffffffffffffffffffffffffffffffffff168152602001908152602001600020541180156106645750600660009054906101000a900460ff1660ff16600360003373ffffffffffffffffffffffffffffffffffffffff1673ffffffffffffffffffffffffffffffffffffffff168152602001908152602001600020540382105b156106b75781600360003373ffffffffffffffffffffffffffffffffffffffff1673ffffffffffffffffffffffffffffffffffffffff168152602001908152602001600020600082825403925050819055505b600360003373ffffffffffffffffffffffffffffffffffffffff1673ffffffffffffffffffffffffffffffffffffffff168152602001908152602001600020549050919050565b6000600954905090565b600073__HouseholdLibrary______________________6367ed3862600360003373ffffffffffffffffffffffffffffffffffffffff1673ffffffffffffffffffffffffffffffffffffffff16815260200190815260200160002054600660009054906101000a900460ff166007546000604051602001526040518463ffffffff167c0100000000000000000000000000000000000000000000000000000000028152600401808481526020018360ff1660ff168152602001828152602001935050505060206040518083038186803b15156107e357600080fd5b6102c65a03f415156107f457600080fd5b50505060405180519050905090565b600660009054906101000a900460ff1660ff16600360003373ffffffffffffffffffffffffffffffffffffffff1673ffffffffffffffffffffffffffffffffffffffff16815260200190815260200160002081905550565b600081600660006101000a81548160ff021916908360ff160217905550600660009054906101000a900460ff169050919050565b6000600460003373ffffffffffffffffffffffffffffffffffffffff1673ffffffffffffffffffffffffffffffffffffffff16815260200190815260200160002054905090565b600080600260003373ffffffffffffffffffffffffffffffffffffffff1673ffffffffffffffffffffffffffffffffffffffff16815260200190815260200160002081905550600260003373ffffffffffffffffffffffffffffffffffffffff1673ffffffffffffffffffffffffffffffffffffffff16815260200190815260200160002054905090565b600081600a60003373ffffffffffffffffffffffffffffffffffffffff1673ffffffffffffffffffffffffffffffffffffffff16815260200190815260200160002060006101000a81548160ff021916908360ff160217905550600a60003373ffffffffffffffffffffffffffffffffffffffff1673ffffffffffffffffffffffffffffffffffffffff16815260200190815260200160002060009054906101000a900460ff169050919050565b6000816007819055506007549050919050565b610a2a6117a5565b81600160003373ffffffffffffffffffffffffffffffffffffffff1673ffffffffffffffffffffffffffffffffffffffff1681526020019081526020016000209080519060200190610a7d9291906117b9565b50600160003373ffffffffffffffffffffffffffffffffffffffff1673ffffffffffffffffffffffffffffffffffffffff1681526020019081526020016000208054600181600116156101000203166002900480601f016020809104026020016040519081016040528092919081815260200182805460018160011615610100020316600290048015610b515780601f10610b2657610100808354040283529160200191610b51565b820191906000526020600020905b815481529060010190602001808311610b3457829003601f168201915b50505050509050919050565b600073__HouseholdLibrary______________________63f3f99e4c600260003373ffffffffffffffffffffffffffffffffffffffff1673ffffffffffffffffffffffffffffffffffffffff16815260200190815260200160002054600360003373ffffffffffffffffffffffffffffffffffffffff1673ffffffffffffffffffffffffffffffffffffffff1681526020019081526020016000205473__HouseholdLibrary______________________6387d41e37600260003373ffffffffffffffffffffffffffffffffffffffff1673ffffffffffffffffffffffffffffffffffffffff1681526020019081526020016000205473__HouseholdLibrary______________________6309bbcf748a42610c7761088f565b600a60003373ffffffffffffffffffffffffffffffffffffffff1673ffffffffffffffffffffffffffffffffffffffff16815260200190815260200160002060009054906101000a900460ff166000604051602001526040518563ffffffff167c0100000000000000000000000000000000000000000000000000000000028152600401808581526020018481526020018381526020018260ff1660ff16815260200194505050505060206040518083038186803b1515610d3757600080fd5b6102c65a03f41515610d4857600080fd5b50505060405180519050600660009054906101000a900460ff16600860009054906101000a900460ff166000604051602001526040518563ffffffff167c0100000000000000000000000000000000000000000000000000000000028152600401808581526020018481526020018360ff1660ff1681526020018260ff1660ff16815260200194505050505060206040518083038186803b1515610deb57600080fd5b6102c65a03f41515610dfc57600080fd5b505050604051805190506000604051602001526040518463ffffffff167c010000000000000000000000000000000000000000000000000000000002815260040180848152602001838152602001828152602001935050505060206040518083038186803b1515610e6c57600080fd5b6102c65a03f41515610e7d57600080fd5b505050604051805190509050919050565b610e966117a5565b81600560003373ffffffffffffffffffffffffffffffffffffffff1673ffffffffffffffffffffffffffffffffffffffff1681526020019081526020016000209080519060200190610ee99291906117b9565b50600560003373ffffffffffffffffffffffffffffffffffffffff1673ffffffffffffffffffffffffffffffffffffffff1681526020019081526020016000208054600181600116156101000203166002900480601f016020809104026020016040519081016040528092919081815260200182805460018160011615610100020316600290048015610fbd5780601f10610f9257610100808354040283529160200191610fbd565b820191906000526020600020905b815481529060010190602001808311610fa057829003601f168201915b50505050509050919050565b6000600260003373ffffffffffffffffffffffffffffffffffffffff1673ffffffffffffffffffffffffffffffffffffffff16815260200190815260200160002054905090565b600081600260003373ffffffffffffffffffffffffffffffffffffffff1673ffffffffffffffffffffffffffffffffffffffff16815260200190815260200160002081905550600260003373ffffffffffffffffffffffffffffffffffffffff1673ffffffffffffffffffffffffffffffffffffffff168152602001908152602001600020549050919050565b42600460003373ffffffffffffffffffffffffffffffffffffffff1673ffffffffffffffffffffffffffffffffffffffff16815260200190815260200160002081905550565b600081600860006101000a81548160ff021916908360ff160217905550919050565b600080600080600080925073__HouseholdLibrary______________________6309bbcf74884261113461088f565b600a60003373ffffffffffffffffffffffffffffffffffffffff1673ffffffffffffffffffffffffffffffffffffffff16815260200190815260200160002060009054906101000a900460ff166000604051602001526040518563ffffffff167c0100000000000000000000000000000000000000000000000000000000028152600401808581526020018481526020018381526020018260ff1660ff16815260200194505050505060206040518083038186803b15156111f457600080fd5b6102c65a03f4151561120557600080fd5b505050604051805190509150600260003373ffffffffffffffffffffffffffffffffffffffff1673ffffffffffffffffffffffffffffffffffffffff16815260200190815260200160002054821015156114545773__HouseholdLibrary______________________634251e8d983600260003373ffffffffffffffffffffffffffffffffffffffff1673ffffffffffffffffffffffffffffffffffffffff168152602001908152602001600020546000604051602001526040518363ffffffff167c0100000000000000000000000000000000000000000000000000000000028152600401808381526020018281526020019250505060206040518083038186803b151561131357600080fd5b6102c65a03f4151561132457600080fd5b505050604051805190506000803373ffffffffffffffffffffffffffffffffffffffff1673ffffffffffffffffffffffffffffffffffffffff1681526020019081526020016000206000828254019250508190555073__HouseholdLibrary______________________634f029e416000803373ffffffffffffffffffffffffffffffffffffffff1673ffffffffffffffffffffffffffffffffffffffff16815260200190815260200160002054886000604051602001526040518363ffffffff167c0100000000000000000000000000000000000000000000000000000000028152600401808381526020018281526020019250505060206040518083038186803b151561143257600080fd5b6102c65a03f4151561144357600080fd5b505050604051805190509250611593565b73__HouseholdLibrary______________________634741c84e600260003373ffffffffffffffffffffffffffffffffffffffff1673ffffffffffffffffffffffffffffffffffffffff1681526020019081526020016000205484600660009054906101000a900460ff166000604051602001526040518463ffffffff167c0100000000000000000000000000000000000000000000000000000000028152600401808481526020018381526020018260ff1660ff168152602001935050505060206040518083038186803b151561152b57600080fd5b6102c65a03f4151561153c57600080fd5b50505060405180519050600360003373ffffffffffffffffffffffffffffffffffffffff1673ffffffffffffffffffffffffffffffffffffffff168152602001908152602001600020600082825401925050819055505b73__HouseholdLibrary______________________63f3f99e4c600260003373ffffffffffffffffffffffffffffffffffffffff1673ffffffffffffffffffffffffffffffffffffffff16815260200190815260200160002054600360003373ffffffffffffffffffffffffffffffffffffffff1673ffffffffffffffffffffffffffffffffffffffff16815260200190815260200160002054600080604051602001526040518463ffffffff167c010000000000000000000000000000000000000000000000000000000002815260040180848152602001838152602001828152602001935050505060206040518083038186803b151561169457600080fd5b6102c65a03f415156116a557600080fd5b5050506040518051905090506116b961109d565b6116c16108d6565b508273__HouseholdLibrary______________________632920c21c836000604051602001526040518263ffffffff167c01000000000000000000000000000000000000000000000000000000000281526004018082815260200191505060206040518083038186803b151561173657600080fd5b6102c65a03f4151561174757600080fd5b50505060405180519050945094505050509250929050565b60008060003373ffffffffffffffffffffffffffffffffffffffff1673ffffffffffffffffffffffffffffffffffffffff16815260200190815260200160002054905090565b602060405190810160405280600081525090565b828054600181600116156101000203166002900490600052602060002090601f016020900481019282601f106117fa57805160ff1916838001178555611828565b82800160010185558215611828579182015b8281111561182757825182559160200191906001019061180c565b5b5090506118359190611839565b5090565b61185b91905b8082111561185757600081600090555060010161183f565b5090565b905600a165627a7a72305820f7d58c531d92aefc208fe05bdf54942d2a603004cfce2a246b9ce79f260dc2d40029",
  "source": "pragma solidity ^0.4.11;\r\n\r\nimport \"./HouseholdLibrary.sol\";\r\n\r\n/*\r\n * Zander Labuschagne se baie werk volg Hier\r\n * 23585137@protonmail.ch | zander.labuschagne@protonmail.ch\r\n * Hierdie kode word gepubliseer onder die BSD-3 nuwe of hersiende lisensie\r\n */\r\n\r\n//HouseholdContract.new().then(function(res) { sc = HouseholdContract.at(res.address) }) //tik die lyntji in truffle console om die adres te kry dan sc.xxxxxx kan methods execute\r\n\r\ncontract HouseholdContract{\r\n\r\n\t//credits/bounty van water gespaar\r\n\tmapping (address => uint256) bounty;\r\n\t//id number van persoon\r\n\tmapping (address => string) id;\r\n\t//hoeveelheid die huishouding al gebruik het\r\n\tmapping (address => uint256) cumulativeUsage;\r\n\r\n\tmapping (address => uint256) price;\r\n\r\n\tmapping (address => uint256) time;\r\n\r\n\tmapping (address => string) meterNumber;\r\n\r\n\tuint8 litre_price;\r\n\r\n\tuint256 lowerPriceReqFactor;\r\n\r\n\tuint8 penaltyFactor;\r\n\r\n\tuint256 value;\r\n\r\n\tmapping (address => uint8) numberOfDependants;\r\n\r\n\tfunction HouseholdContract() {\r\n\t\tsetLitrePrice(1);\r\n\t\tsetInitPrice();\r\n\t\tsetPenaltyFactor(5);\r\n\t}\r\n\r\n\t/*\r\n\t * To change the c/litre if desired\r\n\t**/\r\n\tfunction setLitrePrice(uint8 _litre_price) public returns (uint8 r_litre_price) {\r\n\t\tlitre_price = _litre_price;\r\n\t\treturn litre_price;\r\n\t}\r\n\r\n\t/*\r\n\t * Set the SA ID number to link the contract instance to the person responsible for the HouseHoldContract\r\n\t**/\r\n\tfunction setId(string _id) public returns (string r_id) {\r\n\t\tid[msg.sender] = _id;\r\n\t\treturn id[msg.sender];\r\n\t}\r\n\r\n\t/*\r\n\t * Set the meter number to link the contract instance to the actual meter at the building for the HouseHoldContract\r\n\t**/\r\n\tfunction setMeterNumber(string _meterNumber) public returns (string r_meterNumber) {\r\n\t\tmeterNumber[msg.sender] = _meterNumber;\r\n\t\treturn meterNumber[msg.sender];\r\n\t}\r\n\r\n\t/*\r\n\t * Assign the default price of water to the contract instance\r\n\t**/\r\n\tfunction setInitPrice() public {\r\n\t\tprice[msg.sender] = litre_price;\r\n\t}\r\n\r\n\t/*\r\n\t* Called hourly or daily to update water _usage\r\n\t* Called from water metre\r\n\t**/\r\n\tfunction addWaterUsage(uint256 _usage) public returns (uint256 usage) {\r\n\t\tcumulativeUsage[msg.sender] = _usage;\r\n\t\treturn cumulativeUsage[msg.sender];\r\n\t}\r\n\r\n\t/**\r\n\t* the cumulative water usage resets every month or when the user pays\r\n\t**/\r\n\tfunction resetWaterUsage() public returns (uint256 usage) {\r\n\t\tcumulativeUsage[msg.sender] = 0;\r\n\t\t//bounty[msg.sender] = 0;\r\n\t\t//resets the Pi.... --assumption\r\n\t\treturn cumulativeUsage[msg.sender];\r\n\t}\r\n\r\n\t/*\r\n\t* calculate _recommendedCumulativeUsage from frontend\r\n\t* Pay totals price and convert remainder to bounty and return voucher as well\r\n\t*/\r\n\tfunction pay(uint256 _recommendedDailyUsage, uint256 _bountyFactor) public returns (uint256 r_voucher, uint256 r_amount) {\r\n\t\tuint256 voucher = 0;\r\n\t\tuint256 _recommendedCumulativeUsage = HouseholdLibrary.calculateRecommendedCumulativeUsage(_recommendedDailyUsage, block.timestamp, getTime(), numberOfDependants[msg.sender]);\r\n\t\tif(_recommendedCumulativeUsage >= cumulativeUsage[msg.sender]) {\r\n\t\t\tbounty[msg.sender] += HouseholdLibrary.calculateBounty(_recommendedCumulativeUsage, cumulativeUsage[msg.sender]);\r\n\t\t\tvoucher = HouseholdLibrary.calculateVoucher(bounty[msg.sender], _bountyFactor);\r\n\t\t}\r\n\t\telse\r\n\t\t\tprice[msg.sender] += HouseholdLibrary.increasePrice(cumulativeUsage[msg.sender], _recommendedCumulativeUsage, litre_price);\r\n\t\tuint256 amount = HouseholdLibrary.calculateOutstandingBalance(cumulativeUsage[msg.sender], price[msg.sender], 0);\r\n\t\tsetTime();\r\n\t\tresetWaterUsage();\r\n\t\treturn (voucher, HouseholdLibrary.centToRand(amount));\r\n\t}\r\n\r\n\t/*\r\n\t * return the amount it would cost in R at the moment to pay the water bill\r\n\t**/\r\n\tfunction getOutstandingBalance(uint256 _recommendedDailyUsage) public view returns (uint256 balance) {\r\n\t\t//uint256 _recommendedCumulativeUsage = HouseholdLibrary.calculateRecommendedCumulativeUsage(_recommendedDailyUsage, block.timestamp, getTime(), numberOfDependants[msg.sender]);\r\n\t\t/*value =*/ return HouseholdLibrary.calculateOutstandingBalance(cumulativeUsage[msg.sender], price[msg.sender], HouseholdLibrary.increasePenaltyFactor(cumulativeUsage[msg.sender], HouseholdLibrary.calculateRecommendedCumulativeUsage(_recommendedDailyUsage, block.timestamp, getTime(), numberOfDependants[msg.sender]), litre_price, penaltyFactor));\r\n\r\n\t\t//return value;\r\n\t}\r\n\r\n\t/*\r\n\t* function to lower price if it is high by paying much more tha n usual price\r\n\t**/\r\n\tfunction lowerPrice(uint256 _factor) public returns (uint256 r_price) {\r\n\t\tif(price[msg.sender] > litre_price && _factor < (price[msg.sender] - litre_price)) {\r\n\t\t\tprice[msg.sender] -= _factor;\r\n\t\t}\r\n\r\n\t\treturn price[msg.sender];\r\n\t}\r\n\r\n\t/*\r\n\t * If one wants to preview the amount to be paid in R in order to lower the price/litre if it were raised due to increasePenaltyFactor\r\n\t**/\r\n\tfunction getLowerPriceReq() public view returns (uint256 amount) {\r\n\t\treturn HouseholdLibrary.lowerPriceReq(price[msg.sender], litre_price, lowerPriceReqFactor);\r\n\t}\r\n\r\n\t/*\r\n\t * Sets the amount in R which users pay to lower the penalty payments per litre\r\n\t**/\r\n\tfunction setLowerPriceReqFactor(uint256 _factor) public returns (uint256 factor) {\r\n\t\tlowerPriceReqFactor = _factor;\r\n\t\treturn lowerPriceReqFactor;\r\n\t}\r\n\r\n\t/*\r\n\t * this is the amount the user pays per litre he overused(as well as for future payments) it is the amount of litres per cent ex: 5 would be paying 1c extra for every addisional 5l used\r\n\t * Ex; 1 would then also be paying 1c extra for every addisional litre used\r\n\t * Ex: 2 would then also be paying 1c extra for every addisional 2l used\r\n\t * This should probably be inverted but the current price is 1c per litre and 1l per 1c decrease is actually a lot\r\n\t**/\r\n\tfunction setPenaltyFactor(uint8 _penaltyFactor) public returns (uint8 factor) {\r\n\t\tpenaltyFactor = _penaltyFactor;\r\n\t}\r\n\r\n\t/*\r\n\t * Get current water usage for personal interests\r\n\t**/\r\n\tfunction getWaterUsage() public view returns (uint256 usage) {\r\n\t\treturn cumulativeUsage[msg.sender];\r\n\t}\r\n\r\n\t/*\r\n\t * Get the current bounty for testing purposes\r\n\t**/\r\n\tfunction getBounty() public view returns (uint256 r_bounty) {\r\n\t\treturn bounty[msg.sender];\r\n\t}\r\n\r\n\t/*\r\n\t * Called when payment is made to save when the user last made a payment\r\n\t**/\r\n\tfunction setTime() {\r\n\t\ttime[msg.sender] = block.timestamp;\r\n\t}\r\n\r\n\t/*\r\n\t * Accessor for the time mapping\r\n\t*/\r\n\tfunction getTime() public view returns (uint r_time) {\r\n\t\treturn time[msg.sender];\r\n\t}\r\n\r\n\t/*\r\n\t * Mutator for number of dependants to set the number of people in the household thats using the water on this one address/account\r\n\t * Only called on registration\r\n\t**/\r\n\tfunction setNumberOfDependants(uint8 _deps) returns (uint8 deps) {\r\n\t\tnumberOfDependants[msg.sender] = _deps;\r\n\t\treturn numberOfDependants[msg.sender];\r\n\t}\r\n\r\n\t/*\r\n\t* just for testing\r\n\t*/\r\n\tfunction getValue() public view returns (uint256 val) {\r\n\t\treturn value;\r\n\t}\r\n}\r\n",
  "sourcePath": "/home/zander/GitHub/watersavings-solidity/contracts/HouseholdContract.sol",
  "compiler": {
    "name": "solc",
    "version": "0.4.18+commit.9cf6e910.Emscripten.clang"
  },
  "schemaVersion": "1.0.1",
  "updatedAt": "2018-01-31T12:51:50.078Z"
}