{
  "contractName": "HouseholdContract",
  "abi": [
    {
      "constant": false,
      "inputs": [],
      "name": "resetWaterUsage",
      "outputs": [
        {
          "name": "",
          "type": "uint256"
        }
      ],
      "payable": false,
      "stateMutability": "nonpayable",
      "type": "function"
    },
    {
      "constant": true,
      "inputs": [
        {
          "name": "_recommendedCumulativeUsage",
          "type": "uint256"
        },
        {
          "name": "_bountyFactor",
          "type": "uint256"
        }
      ],
      "name": "getBounty",
      "outputs": [
        {
          "name": "voucher",
          "type": "uint256"
        }
      ],
      "payable": false,
      "stateMutability": "view",
      "type": "function"
    },
    {
      "constant": false,
      "inputs": [
        {
          "name": "_usage",
          "type": "uint256"
        }
      ],
      "name": "addWaterUsage",
      "outputs": [
        {
          "name": "",
          "type": "uint256"
        }
      ],
      "payable": false,
      "stateMutability": "nonpayable",
      "type": "function"
    },
    {
      "inputs": [],
      "payable": false,
      "stateMutability": "nonpayable",
      "type": "constructor"
    }
  ],
  "bytecode": "0x6060604052341561000f57600080fd5b61043e8061001e6000396000f300606060405260043610610057576000357c0100000000000000000000000000000000000000000000000000000000900463ffffffff16806355e88ec21461005c57806385e74f0014610085578063cae7fbcc146100c5575b600080fd5b341561006757600080fd5b61006f6100fc565b6040518082815260200191505060405180910390f35b341561009057600080fd5b6100af6004808035906020019091908035906020019091905050610187565b6040518082815260200191505060405180910390f35b34156100d057600080fd5b6100e66004808035906020019091905050610385565b6040518082815260200191505060405180910390f35b600080600260003373ffffffffffffffffffffffffffffffffffffffff1673ffffffffffffffffffffffffffffffffffffffff16815260200190815260200160002081905550600260003373ffffffffffffffffffffffffffffffffffffffff1673ffffffffffffffffffffffffffffffffffffffff16815260200190815260200160002054905090565b600073__HouseholdLibrary______________________634251e8d984600260003373ffffffffffffffffffffffffffffffffffffffff1673ffffffffffffffffffffffffffffffffffffffff168152602001908152602001600020546000604051602001526040518363ffffffff167c0100000000000000000000000000000000000000000000000000000000028152600401808381526020018281526020019250505060206040518083038186803b151561024357600080fd5b6102c65a03f4151561025457600080fd5b505050604051805190506000803373ffffffffffffffffffffffffffffffffffffffff1673ffffffffffffffffffffffffffffffffffffffff168152602001908152602001600020819055506102a86100fc565b5073__HouseholdLibrary______________________634f029e416000803373ffffffffffffffffffffffffffffffffffffffff1673ffffffffffffffffffffffffffffffffffffffff16815260200190815260200160002054846000604051602001526040518363ffffffff167c0100000000000000000000000000000000000000000000000000000000028152600401808381526020018281526020019250505060206040518083038186803b151561036257600080fd5b6102c65a03f4151561037357600080fd5b50505060405180519050905092915050565b600081600260003373ffffffffffffffffffffffffffffffffffffffff1673ffffffffffffffffffffffffffffffffffffffff16815260200190815260200160002081905550600260003373ffffffffffffffffffffffffffffffffffffffff1673ffffffffffffffffffffffffffffffffffffffff1681526020019081526020016000205490509190505600a165627a7a7230582010ee9915bc090dd4ece005c18751df311da6a26b8755b10ffec86855a856f3500029",
  "source": "pragma solidity ^0.4.11;\r\n\r\nimport \"./HouseholdLibrary.sol\";\r\n\r\n//contract_name.new().then(function(res) { sc = contract_name.at(res.address) }) //tik die lyntji in truffle console om die adres te kry dan sc.xxxxxx kan methods execute\r\n\r\ncontract HouseholdContract{\r\n\r\n\t//credits/bounty van water gespaar\r\n\tmapping (address => uint256) bounty;\r\n\t//id number van persoon\r\n\tmapping (address => string) id;\r\n\t//hoeveelheid die huishouding al gebruik het\r\n\tmapping (address => uint256) cumulativeUsage;\r\n\r\n\t/**\r\n\t* TODO: add stuff\r\n\t**/\r\n\tfunction HouseholdContract() {\r\n\r\n\t}\r\n\r\n\t/*\r\n\t* Called hourly or daily to update water _usage\r\n\t**/\r\n\tfunction addWaterUsage(uint256 _usage) public returns (uint256) {\r\n\t\tcumulativeUsage[msg.sender] = _usage;\r\n\t\treturn cumulativeUsage[msg.sender];\r\n\t}\r\n\r\n\t/**\r\n\t* the cumulative water usage resets every month or when the user pays\r\n\t**/\r\n\tfunction resetWaterUsage() public returns (uint256) {\r\n\t\tcumulativeUsage[msg.sender] = 0;\r\n\t\treturn cumulativeUsage[msg.sender];\r\n\t}\r\n\r\n\t/*\r\n\t* Called once a month, but updated regularly offchain\r\n\t* calculate _recommendedCumulativeUsage from frontend\r\n\t* Pay totals price and convert remainder to bounty\r\n\t*/\r\n\tfunction getBounty(uint256 _recommendedCumulativeUsage, uint256 _bountyFactor) view returns (uint256 voucher) {\r\n\t\tbounty[msg.sender] = HouseholdLibrary.calculateBounty(_recommendedCumulativeUsage, cumulativeUsage[msg.sender]);\r\n\t\tresetWaterUsage();\r\n\t\treturn HouseholdLibrary.calculateVoucher(bounty[msg.sender], _bountyFactor);\r\n\t}\r\n}\r\n",
  "sourcePath": "/home/zander/GitHub/watersavings-solidity/contracts/HouseholdContract.sol",
  "compiler": {
    "name": "solc",
    "version": "0.4.18+commit.9cf6e910.Emscripten.clang"
  },
  "schemaVersion": "1.0.1",
  "updatedAt": "2018-01-30T09:54:47.490Z"
}