{
  "contractName": "HouseholdContract",
  "abi": [
    {
      "constant": false,
      "inputs": [
        {
          "name": "_factor",
          "type": "uint256"
        }
      ],
      "name": "lowerPrice",
      "outputs": [
        {
          "name": "r_price",
          "type": "uint256"
        }
      ],
      "payable": false,
      "stateMutability": "nonpayable",
      "type": "function"
    },
    {
      "constant": true,
      "inputs": [],
      "name": "getLowerPriceReq",
      "outputs": [
        {
          "name": "amount",
          "type": "uint256"
        }
      ],
      "payable": false,
      "stateMutability": "view",
      "type": "function"
    },
    {
      "constant": false,
      "inputs": [],
      "name": "setInitPrice",
      "outputs": [],
      "payable": false,
      "stateMutability": "nonpayable",
      "type": "function"
    },
    {
      "constant": false,
      "inputs": [
        {
          "name": "_litre_price",
          "type": "uint8"
        }
      ],
      "name": "setLitrePrice",
      "outputs": [
        {
          "name": "r_litre_price",
          "type": "uint8"
        }
      ],
      "payable": false,
      "stateMutability": "nonpayable",
      "type": "function"
    },
    {
      "constant": false,
      "inputs": [],
      "name": "getTime",
      "outputs": [
        {
          "name": "r_time",
          "type": "uint256"
        }
      ],
      "payable": false,
      "stateMutability": "nonpayable",
      "type": "function"
    },
    {
      "constant": false,
      "inputs": [],
      "name": "resetWaterUsage",
      "outputs": [
        {
          "name": "usage",
          "type": "uint256"
        }
      ],
      "payable": false,
      "stateMutability": "nonpayable",
      "type": "function"
    },
    {
      "constant": false,
      "inputs": [
        {
          "name": "_id",
          "type": "string"
        }
      ],
      "name": "setId",
      "outputs": [
        {
          "name": "r_id",
          "type": "string"
        }
      ],
      "payable": false,
      "stateMutability": "nonpayable",
      "type": "function"
    },
    {
      "constant": false,
      "inputs": [
        {
          "name": "_recommendedDailyUsage",
          "type": "uint256"
        }
      ],
      "name": "getOutstandingBalance",
      "outputs": [
        {
          "name": "balance",
          "type": "uint256"
        }
      ],
      "payable": false,
      "stateMutability": "nonpayable",
      "type": "function"
    },
    {
      "constant": true,
      "inputs": [],
      "name": "getWaterUsage",
      "outputs": [
        {
          "name": "usage",
          "type": "uint256"
        }
      ],
      "payable": false,
      "stateMutability": "view",
      "type": "function"
    },
    {
      "constant": false,
      "inputs": [
        {
          "name": "_usage",
          "type": "uint256"
        }
      ],
      "name": "addWaterUsage",
      "outputs": [
        {
          "name": "usage",
          "type": "uint256"
        }
      ],
      "payable": false,
      "stateMutability": "nonpayable",
      "type": "function"
    },
    {
      "constant": false,
      "inputs": [],
      "name": "setTime",
      "outputs": [],
      "payable": false,
      "stateMutability": "nonpayable",
      "type": "function"
    },
    {
      "constant": false,
      "inputs": [
        {
          "name": "_recommendedDailyUsage",
          "type": "uint256"
        },
        {
          "name": "_bountyFactor",
          "type": "uint256"
        }
      ],
      "name": "pay",
      "outputs": [
        {
          "name": "r_voucher",
          "type": "uint256"
        },
        {
          "name": "r_amount",
          "type": "uint256"
        }
      ],
      "payable": false,
      "stateMutability": "nonpayable",
      "type": "function"
    },
    {
      "constant": true,
      "inputs": [],
      "name": "getBounty",
      "outputs": [
        {
          "name": "r_bounty",
          "type": "uint256"
        }
      ],
      "payable": false,
      "stateMutability": "view",
      "type": "function"
    },
    {
      "inputs": [],
      "payable": false,
      "stateMutability": "nonpayable",
      "type": "constructor"
    }
  ],
  "bytecode": "0x6060604052341561000f57600080fd5b61002c600161004d640100000000026105fc176401000000009004565b50610048610081640100000000026105a4176401000000009004565b6100d9565b600081600560006101000a81548160ff021916908360ff160217905550600560009054906101000a900460ff169050919050565b600560009054906101000a900460ff1660ff16600360003373ffffffffffffffffffffffffffffffffffffffff1673ffffffffffffffffffffffffffffffffffffffff16815260200190815260200160002081905550565b6113af806100e86000396000f3006060604052600436106100c5576000357c0100000000000000000000000000000000000000000000000000000000900463ffffffff1680630c3986e2146100ca57806329bdeeaa1461010157806340e94e8c1461012a578063500fb4891461013f578063557ed1ba1461017f57806355e88ec2146101a857806387e4396c146101d15780639b8fec30146102a7578063c613d4fa146102de578063cae7fbcc14610307578063d9276a491461033e578063ef48eee614610353578063f49bff7b1461039a575b600080fd5b34156100d557600080fd5b6100eb60048080359060200190919050506103c3565b6040518082815260200191505060405180910390f35b341561010c57600080fd5b6101146104b3565b6040518082815260200191505060405180910390f35b341561013557600080fd5b61013d6105a4565b005b341561014a57600080fd5b610163600480803560ff169060200190919050506105fc565b604051808260ff1660ff16815260200191505060405180910390f35b341561018a57600080fd5b610192610630565b6040518082815260200191505060405180910390f35b34156101b357600080fd5b6101bb61063a565b6040518082815260200191505060405180910390f35b34156101dc57600080fd5b61022c600480803590602001908201803590602001908080601f016020809104026020016040519081016040528093929190818152602001838380828437820191505050505050919050506106c5565b6040518080602001828103825283818151815260200191508051906020019080838360005b8381101561026c578082015181840152602081019050610251565b50505050905090810190601f1680156102995780820380516001836020036101000a031916815260200191505b509250505060405180910390f35b34156102b257600080fd5b6102c86004808035906020019091905050610800565b6040518082815260200191505060405180910390f35b34156102e957600080fd5b6102f1610b63565b6040518082815260200191505060405180910390f35b341561031257600080fd5b6103286004808035906020019091905050610baa565b6040518082815260200191505060405180910390f35b341561034957600080fd5b610351610c37565b005b341561035e57600080fd5b61037d6004808035906020019091908035906020019091905050610c40565b604051808381526020018281526020019250505060405180910390f35b34156103a557600080fd5b6103ad611284565b6040518082815260200191505060405180910390f35b6000600560009054906101000a900460ff1660ff16600360003373ffffffffffffffffffffffffffffffffffffffff1673ffffffffffffffffffffffffffffffffffffffff16815260200190815260200160002054111561046c5781600360003373ffffffffffffffffffffffffffffffffffffffff1673ffffffffffffffffffffffffffffffffffffffff168152602001908152602001600020600082825403925050819055505b600360003373ffffffffffffffffffffffffffffffffffffffff1673ffffffffffffffffffffffffffffffffffffffff168152602001908152602001600020549050919050565b600073__HouseholdLibrary______________________6387ea2fb8600360003373ffffffffffffffffffffffffffffffffffffffff1673ffffffffffffffffffffffffffffffffffffffff16815260200190815260200160002054600560009054906101000a900460ff166000604051602001526040518363ffffffff167c0100000000000000000000000000000000000000000000000000000000028152600401808381526020018260ff1660ff1681526020019250505060206040518083038186803b151561058457600080fd5b6102c65a03f4151561059557600080fd5b50505060405180519050905090565b600560009054906101000a900460ff1660ff16600360003373ffffffffffffffffffffffffffffffffffffffff1673ffffffffffffffffffffffffffffffffffffffff16815260200190815260200160002081905550565b600081600560006101000a81548160ff021916908360ff160217905550600560009054906101000a900460ff169050919050565b6000600454905090565b600080600260003373ffffffffffffffffffffffffffffffffffffffff1673ffffffffffffffffffffffffffffffffffffffff16815260200190815260200160002081905550600260003373ffffffffffffffffffffffffffffffffffffffff1673ffffffffffffffffffffffffffffffffffffffff16815260200190815260200160002054905090565b6106cd6112ca565b81600160003373ffffffffffffffffffffffffffffffffffffffff1673ffffffffffffffffffffffffffffffffffffffff16815260200190815260200160002090805190602001906107209291906112de565b50600160003373ffffffffffffffffffffffffffffffffffffffff1673ffffffffffffffffffffffffffffffffffffffff1681526020019081526020016000208054600181600116156101000203166002900480601f0160208091040260200160405190810160405280929190818152602001828054600181600116156101000203166002900480156107f45780601f106107c9576101008083540402835291602001916107f4565b820191906000526020600020905b8154815290600101906020018083116107d757829003601f168201915b50505050509050919050565b60008073__HouseholdLibrary______________________63babfcab38442610827610630565b6000604051602001526040518463ffffffff167c010000000000000000000000000000000000000000000000000000000002815260040180848152602001838152602001828152602001935050505060206040518083038186803b151561088d57600080fd5b6102c65a03f4151561089e57600080fd5b50505060405180519050905073__HouseholdLibrary______________________63f3f99e4c600260003373ffffffffffffffffffffffffffffffffffffffff1673ffffffffffffffffffffffffffffffffffffffff16815260200190815260200160002054600360003373ffffffffffffffffffffffffffffffffffffffff1673ffffffffffffffffffffffffffffffffffffffff1681526020019081526020016000205473__HouseholdLibrary______________________6372e3fc6f600260003373ffffffffffffffffffffffffffffffffffffffff1673ffffffffffffffffffffffffffffffffffffffff1681526020019081526020016000205473__HouseholdLibrary______________________63babfcab38b426109c2610630565b6000604051602001526040518463ffffffff167c010000000000000000000000000000000000000000000000000000000002815260040180848152602001838152602001828152602001935050505060206040518083038186803b1515610a2857600080fd5b6102c65a03f41515610a3957600080fd5b50505060405180519050600560009054906101000a900460ff166000604051602001526040518463ffffffff167c0100000000000000000000000000000000000000000000000000000000028152600401808481526020018381526020018260ff1660ff168152602001935050505060206040518083038186803b1515610abf57600080fd5b6102c65a03f41515610ad057600080fd5b505050604051805190506000604051602001526040518463ffffffff167c010000000000000000000000000000000000000000000000000000000002815260040180848152602001838152602001828152602001935050505060206040518083038186803b1515610b4057600080fd5b6102c65a03f41515610b5157600080fd5b50505060405180519050915050919050565b6000600260003373ffffffffffffffffffffffffffffffffffffffff1673ffffffffffffffffffffffffffffffffffffffff16815260200190815260200160002054905090565b600081600260003373ffffffffffffffffffffffffffffffffffffffff1673ffffffffffffffffffffffffffffffffffffffff16815260200190815260200160002081905550600260003373ffffffffffffffffffffffffffffffffffffffff1673ffffffffffffffffffffffffffffffffffffffff168152602001908152602001600020549050919050565b42600481905550565b600080600080600080925073__HouseholdLibrary______________________63babfcab38842610c6f610630565b6000604051602001526040518463ffffffff167c010000000000000000000000000000000000000000000000000000000002815260040180848152602001838152602001828152602001935050505060206040518083038186803b1515610cd557600080fd5b6102c65a03f41515610ce657600080fd5b505050604051805190509150600260003373ffffffffffffffffffffffffffffffffffffffff1673ffffffffffffffffffffffffffffffffffffffff1681526020019081526020016000205482101515610f795773__HouseholdLibrary______________________634251e8d983600260003373ffffffffffffffffffffffffffffffffffffffff1673ffffffffffffffffffffffffffffffffffffffff168152602001908152602001600020546000604051602001526040518363ffffffff167c0100000000000000000000000000000000000000000000000000000000028152600401808381526020018281526020019250505060206040518083038186803b1515610df457600080fd5b6102c65a03f41515610e0557600080fd5b505050604051805190506000803373ffffffffffffffffffffffffffffffffffffffff1673ffffffffffffffffffffffffffffffffffffffff1681526020019081526020016000206000828254019250508190555073__HouseholdLibrary______________________634f029e416000803373ffffffffffffffffffffffffffffffffffffffff1673ffffffffffffffffffffffffffffffffffffffff16815260200190815260200160002054886000604051602001526040518363ffffffff167c0100000000000000000000000000000000000000000000000000000000028152600401808381526020018281526020019250505060206040518083038186803b1515610f1357600080fd5b6102c65a03f41515610f2457600080fd5b50505060405180519050925060008060003373ffffffffffffffffffffffffffffffffffffffff1673ffffffffffffffffffffffffffffffffffffffff168152602001908152602001600020819055506110b8565b73__HouseholdLibrary______________________634741c84e600260003373ffffffffffffffffffffffffffffffffffffffff1673ffffffffffffffffffffffffffffffffffffffff1681526020019081526020016000205484600560009054906101000a900460ff166000604051602001526040518463ffffffff167c0100000000000000000000000000000000000000000000000000000000028152600401808481526020018381526020018260ff1660ff168152602001935050505060206040518083038186803b151561105057600080fd5b6102c65a03f4151561106157600080fd5b50505060405180519050600360003373ffffffffffffffffffffffffffffffffffffffff1673ffffffffffffffffffffffffffffffffffffffff168152602001908152602001600020600082825401925050819055505b73__HouseholdLibrary______________________63f3f99e4c600260003373ffffffffffffffffffffffffffffffffffffffff1673ffffffffffffffffffffffffffffffffffffffff16815260200190815260200160002054600360003373ffffffffffffffffffffffffffffffffffffffff1673ffffffffffffffffffffffffffffffffffffffff16815260200190815260200160002054600080604051602001526040518463ffffffff167c010000000000000000000000000000000000000000000000000000000002815260040180848152602001838152602001828152602001935050505060206040518083038186803b15156111b957600080fd5b6102c65a03f415156111ca57600080fd5b5050506040518051905090506111de610c37565b6111e661063a565b508273__HouseholdLibrary______________________632920c21c836000604051602001526040518263ffffffff167c01000000000000000000000000000000000000000000000000000000000281526004018082815260200191505060206040518083038186803b151561125b57600080fd5b6102c65a03f4151561126c57600080fd5b50505060405180519050945094505050509250929050565b60008060003373ffffffffffffffffffffffffffffffffffffffff1673ffffffffffffffffffffffffffffffffffffffff16815260200190815260200160002054905090565b602060405190810160405280600081525090565b828054600181600116156101000203166002900490600052602060002090601f016020900481019282601f1061131f57805160ff191683800117855561134d565b8280016001018555821561134d579182015b8281111561134c578251825591602001919060010190611331565b5b50905061135a919061135e565b5090565b61138091905b8082111561137c576000816000905550600101611364565b5090565b905600a165627a7a723058206062151b9952d17af435f469c1c3ce71fba73cbc5ec7ff4d5ff95921a6287e2f0029",
  "source": "pragma solidity ^0.4.11;\r\n\r\nimport \"./HouseholdLibrary.sol\";\r\n\r\n/*\r\n * Zander Labuschagne se baie werk volg Hier\r\n * 23585137@protonmail.ch | zander.labuschagne@protonmail.ch\r\n * Hierdie kode word gepubliseer onder die BSD-3 nuwe of hersiende lisensie\r\n */\r\n\r\n//HouseHoldContract.new().then(function(res) { sc = HouseHoldContract.at(res.address) }) //tik die lyntji in truffle console om die adres te kry dan sc.xxxxxx kan methods execute\r\n\r\ncontract HouseholdContract{\r\n\r\n\t//credits/bounty van water gespaar\r\n\tmapping (address => uint256) bounty;\r\n\t//id number van persoon\r\n\tmapping (address => string) id;\r\n\t//hoeveelheid die huishouding al gebruik het\r\n\tmapping (address => uint256) cumulativeUsage;\r\n\r\n\tmapping (address => uint256) price;\r\n\r\n\tuint time;\r\n\r\n\tuint8 private litre_price;\r\n\r\n\tfunction HouseholdContract() {\r\n\t\tsetLitrePrice(1);\r\n\t\tsetInitPrice();\r\n\t}\r\n\r\n\t/*\r\n\t * To change the R/litre if desired\r\n\t**/\r\n\tfunction setLitrePrice(uint8 _litre_price) public returns (uint8 r_litre_price) {\r\n\t\tlitre_price = _litre_price;\r\n\t\treturn litre_price;\r\n\t}\r\n\r\n\t/*\r\n\t * Set the SA ID number to link the contract instance to the person responsible for the HouseHoldContract\r\n\t**/\r\n\tfunction setId(string _id) public returns (string r_id) {\r\n\t\tid[msg.sender] = _id;\r\n\t\treturn id[msg.sender];\r\n\t}\r\n\r\n\t/*\r\n\t * Assign the default price of water to the contract instance\r\n\t**/\r\n\tfunction setInitPrice() public {\r\n\t\tprice[msg.sender] = litre_price;\r\n\t}\r\n\r\n\t/*\r\n\t* Called hourly or daily to update water _usage\r\n\t* Called from water metre\r\n\t**/\r\n\tfunction addWaterUsage(uint256 _usage) public returns (uint256 usage) {\r\n\t\tcumulativeUsage[msg.sender] = _usage;\r\n\t\treturn cumulativeUsage[msg.sender];\r\n\t}\r\n\r\n\t/**\r\n\t* the cumulative water usage resets every month or when the user pays\r\n\t**/\r\n\tfunction resetWaterUsage() public returns (uint256 usage) {\r\n\t\tcumulativeUsage[msg.sender] = 0;\r\n\t\t//resets the Pi.... --assumption\r\n\t\treturn cumulativeUsage[msg.sender];\r\n\t}\r\n\r\n\t/*\r\n\t* calculate _recommendedCumulativeUsage from frontend\r\n\t* Pay totals price and convert remainder to bounty and return voucher as well\r\n\t*/\r\n\tfunction pay(uint256 _recommendedDailyUsage, uint256 _bountyFactor) public returns (uint256 r_voucher, uint256 r_amount) {\r\n\t\tuint256 voucher = 0;\r\n\t\tuint256 _recommendedCumulativeUsage = HouseholdLibrary.calculateCumulativeUsage(_recommendedDailyUsage, block.timestamp, getTime());\r\n\t\tif(_recommendedCumulativeUsage >= cumulativeUsage[msg.sender]) {\r\n\t\t\tbounty[msg.sender] += HouseholdLibrary.calculateBounty(_recommendedCumulativeUsage, cumulativeUsage[msg.sender]);\r\n\t\t\tvoucher = HouseholdLibrary.calculateVoucher(bounty[msg.sender], _bountyFactor);\r\n\t\t\tbounty[msg.sender] = 0;\r\n\t\t}\r\n\t\telse\r\n\t\t\tprice[msg.sender] += HouseholdLibrary.increasePrice(cumulativeUsage[msg.sender], _recommendedCumulativeUsage, litre_price);\r\n\t\tuint256 amount = HouseholdLibrary.calculateOutstandingBalance(cumulativeUsage[msg.sender], price[msg.sender], 0);\r\n\t\tsetTime();\r\n\t\tresetWaterUsage();\r\n\t\treturn (voucher, HouseholdLibrary.centToRand(amount));\r\n\t}\r\n\r\n\tfunction getOutstandingBalance(uint256 _recommendedDailyUsage) returns (uint256 balance) {\r\n\t\tuint256 _recommendedCumulativeUsage = HouseholdLibrary.calculateCumulativeUsage(_recommendedDailyUsage, block.timestamp, getTime());\r\n\t\treturn HouseholdLibrary.calculateOutstandingBalance(cumulativeUsage[msg.sender], price[msg.sender], HouseholdLibrary.increasePenaltyFactor(cumulativeUsage[msg.sender], HouseholdLibrary.calculateCumulativeUsage(_recommendedDailyUsage, block.timestamp, getTime()), litre_price));\r\n\t}\r\n\r\n\t/*\r\n\t* function to lower price if it is high by paying much more tha n usual price\r\n\t**/\r\n\tfunction lowerPrice(uint256 _factor) public returns (uint256 r_price) {\r\n\t\tif(price[msg.sender] > litre_price) {\r\n\t\t\tprice[msg.sender] -= _factor;\r\n\t\t}\r\n\r\n\t\treturn price[msg.sender];\r\n\t}\r\n\r\n\t/*\r\n\t * If one wants to preview the amount to be paid in order to lower the price/litre if it were raised due to increasePenaltyFactor\r\n\t**/\r\n\tfunction getLowerPriceReq() public view returns (uint256 amount) {\r\n\t\treturn HouseholdLibrary.lowerPriceReq(price[msg.sender], litre_price);\r\n\t}\r\n\r\n\t/*\r\n\t * Get current water usage for personal interests\r\n\t**/\r\n\tfunction getWaterUsage() public view returns (uint256 usage) {\r\n\t\treturn cumulativeUsage[msg.sender];\r\n\t}\r\n\r\n\t/*\r\n\t * Get the current bounty for testing purposes\r\n\t**/\r\n\tfunction getBounty() public view returns (uint256 r_bounty) {\r\n\t\treturn bounty[msg.sender];\r\n\t}\r\n\r\n\tfunction setTime() {\r\n\t\ttime = block.timestamp;\r\n\t}\r\n\r\n\tfunction getTime() returns (uint r_time) {\r\n\t\treturn time;\r\n\t}\r\n}\r\n",
  "sourcePath": "/home/zander/GitHub/watersavings-solidity/contracts/HouseholdContract.sol",
  "compiler": {
    "name": "solc",
    "version": "0.4.18+commit.9cf6e910.Emscripten.clang"
  },
  "schemaVersion": "1.0.1",
  "updatedAt": "2018-01-31T09:18:33.358Z"
}