{
  "contractName": "HouseholdLibrary",
  "abi": [
    {
      "constant": true,
      "inputs": [
        {
          "name": "_cents",
          "type": "uint256"
        }
      ],
      "name": "centToRand",
      "outputs": [
        {
          "name": "rands",
          "type": "uint256"
        }
      ],
      "payable": false,
      "stateMutability": "pure",
      "type": "function"
    },
    {
      "constant": true,
      "inputs": [
        {
          "name": "_recommendedCumulativeUsage",
          "type": "uint256"
        },
        {
          "name": "_userCumulativeUsage",
          "type": "uint256"
        }
      ],
      "name": "calculateBounty",
      "outputs": [
        {
          "name": "bounty",
          "type": "uint256"
        }
      ],
      "payable": false,
      "stateMutability": "pure",
      "type": "function"
    },
    {
      "constant": true,
      "inputs": [
        {
          "name": "_usage",
          "type": "uint256"
        },
        {
          "name": "_recommendedUsage",
          "type": "uint256"
        },
        {
          "name": "_litre_price",
          "type": "uint8"
        }
      ],
      "name": "increasePrice",
      "outputs": [
        {
          "name": "newPrice",
          "type": "uint256"
        }
      ],
      "payable": false,
      "stateMutability": "pure",
      "type": "function"
    },
    {
      "constant": true,
      "inputs": [
        {
          "name": "_bounty",
          "type": "uint256"
        },
        {
          "name": "_factor",
          "type": "uint256"
        }
      ],
      "name": "calculateVoucher",
      "outputs": [
        {
          "name": "voucher",
          "type": "uint256"
        }
      ],
      "payable": false,
      "stateMutability": "pure",
      "type": "function"
    },
    {
      "constant": true,
      "inputs": [
        {
          "name": "_time1",
          "type": "uint256"
        },
        {
          "name": "_time2",
          "type": "uint256"
        }
      ],
      "name": "getTimeDifferenceDays",
      "outputs": [
        {
          "name": "timeDifference",
          "type": "uint256"
        }
      ],
      "payable": false,
      "stateMutability": "pure",
      "type": "function"
    },
    {
      "constant": true,
      "inputs": [
        {
          "name": "_usage",
          "type": "uint256"
        },
        {
          "name": "_recommendedUsage",
          "type": "uint256"
        },
        {
          "name": "_litre_price",
          "type": "uint8"
        }
      ],
      "name": "increasePenaltyFactor",
      "outputs": [
        {
          "name": "factor",
          "type": "uint256"
        }
      ],
      "payable": false,
      "stateMutability": "pure",
      "type": "function"
    },
    {
      "constant": true,
      "inputs": [
        {
          "name": "_price",
          "type": "uint256"
        },
        {
          "name": "_litre_price",
          "type": "uint8"
        }
      ],
      "name": "lowerPriceReq",
      "outputs": [
        {
          "name": "price",
          "type": "uint256"
        }
      ],
      "payable": false,
      "stateMutability": "pure",
      "type": "function"
    },
    {
      "constant": false,
      "inputs": [
        {
          "name": "_recommendedDailyUsage",
          "type": "uint256"
        },
        {
          "name": "_current",
          "type": "uint256"
        },
        {
          "name": "_previous",
          "type": "uint256"
        }
      ],
      "name": "calculateCumulativeUsage",
      "outputs": [
        {
          "name": "cumulativeUsage",
          "type": "uint256"
        }
      ],
      "payable": false,
      "stateMutability": "nonpayable",
      "type": "function"
    },
    {
      "constant": true,
      "inputs": [
        {
          "name": "_usage",
          "type": "uint256"
        },
        {
          "name": "_price",
          "type": "uint256"
        },
        {
          "name": "_factor",
          "type": "uint256"
        }
      ],
      "name": "calculateOutstandingBalance",
      "outputs": [
        {
          "name": "amount",
          "type": "uint256"
        }
      ],
      "payable": false,
      "stateMutability": "pure",
      "type": "function"
    }
  ],
  "bytecode": "0x6060604052341561000f57600080fd5b61039a8061001e6000396000f300606060405260043610610099576000357c0100000000000000000000000000000000000000000000000000000000900463ffffffff1680632920c21c1461009e5780634251e8d9146100ca5780634741c84e146100ff5780634f029e41146101405780636340a6861461017557806372e3fc6f146101aa57806387ea2fb8146101eb578063babfcab314610223578063f3f99e4c14610261575b600080fd5b6100b4600480803590602001909190505061029f565b6040518082815260200191505060405180910390f35b6100e960048080359060200190919080359060200190919050506102b5565b6040518082815260200191505060405180910390f35b61012a600480803590602001909190803590602001909190803560ff169060200190919050506102c2565b6040518082815260200191505060405180910390f35b61015f60048080359060200190919080359060200190919050506102d5565b6040518082815260200191505060405180910390f35b61019460048080359060200190919080359060200190919050506102e2565b6040518082815260200191505060405180910390f35b6101d5600480803590602001909190803590602001909190803560ff169060200190919050506102fe565b6040518082815260200191505060405180910390f35b61020d600480803590602001909190803560ff16906020019091905050610323565b6040518082815260200191505060405180910390f35b61024b600480803590602001909190803590602001909190803590602001909190505061033f565b6040518082815260200191505060405180910390f35b6102896004808035906020019091908035906020019091908035906020019091905050610356565b6040518082815260200191505060405180910390f35b60006064828115156102ad57fe5b049050919050565b6000818303905092915050565b60008284038260ff160290509392505050565b6000818302905092915050565b60006305265c008383038115156102f557fe5b04905092915050565b600083831015610317578284038260ff1602905061031c565b600090505b9392505050565b6000610337610bb88360ff1685030261029f565b905092915050565b600061034b82846102e2565b840290509392505050565b6000610365828401850261029f565b905093925050505600a165627a7a7230582044b804b81322f92400f899be98c0137e0d5b8fce6225ac388bafd9aa9a6197bf0029",
  "source": "pragma solidity ^0.4.11;\r\n\r\n/*\r\n * Zander Labuschagne se baie werk volg Hier\r\n * 23585137@protonmail.ch | zander.labuschagne@protonmail.ch\r\n * Hierdie kode word gepubliseer onder die BSD-3 nuwe of hersiende lisensie\r\n */\r\n\r\nlibrary HouseholdLibrary {\r\n\tfunction calculateBounty(uint256 _recommendedCumulativeUsage, uint256 _userCumulativeUsage) public pure returns (uint256 bounty) {\r\n\t\treturn _recommendedCumulativeUsage - _userCumulativeUsage;\r\n\t}\r\n\r\n\tfunction calculateVoucher(uint256 _bounty, uint256 _factor) public pure returns (uint256 voucher) {\r\n\t\treturn _bounty * _factor;\r\n\t}\r\n\r\n\tfunction increasePrice(uint256 _usage, uint256 _recommendedUsage, uint8 _litre_price) public pure returns (uint256 newPrice) {\r\n\t\treturn _litre_price * (_usage - _recommendedUsage);\r\n\t}\r\n\r\n\t/*function getAmountToPay(uint256 _usage, uint256 _price) public pure returns (uint256 amount) {\r\n\t\treturn _usage * _price;\r\n\t}*/\r\n\r\n\tfunction centToRand(uint256 _cents) public pure returns (uint256 rands) {\r\n\t\treturn _cents / 100;\r\n\t}\r\n\r\n\tfunction increasePenaltyFactor(uint256 _usage, uint256 _recommendedUsage, uint8 _litre_price) public pure returns (uint256 factor) {\r\n\t\tif(_recommendedUsage < _usage)\r\n\t\t\treturn _litre_price * (_usage - _recommendedUsage);\r\n\t\telse\r\n\t\t\treturn 0;\r\n\t}\r\n\r\n\tfunction calculateOutstandingBalance(uint256 _usage, uint256 _price, uint256 _factor) public pure returns (uint256 amount) {\r\n\t\treturn centToRand(_usage * (_price + _factor));\r\n\t}\r\n\r\n\tfunction lowerPriceReq(uint256 _price, uint8 _litre_price) public pure returns (uint256 price) {\r\n\t\treturn centToRand((_price - _litre_price) * 3000);\r\n\t}\r\n\r\n\tfunction getTimeDifferenceDays(uint256 _time1, uint256 _time2) public pure returns (uint256 timeDifference){\r\n\t\treturn (_time2 - _time1) / (1000 * 60 * 60 * 24);\r\n\t}\r\n\r\n\tfunction calculateCumulativeUsage(uint256 _recommendedDailyUsage, uint256 _current, uint256 _previous) returns (uint256 cumulativeUsage){\r\n\t\treturn _recommendedDailyUsage * getTimeDifferenceDays(_previous, _current);\r\n\t}\r\n}\r\n",
  "sourcePath": "/home/zander/GitHub/watersavings-solidity/contracts/HouseholdLibrary.sol",
  "compiler": {
    "name": "solc",
    "version": "0.4.18+commit.9cf6e910.Emscripten.clang"
  },
  "schemaVersion": "1.0.1",
  "updatedAt": "2018-01-31T09:18:33.360Z"
}