{
  "contractName": "HouseholdContract",
  "abi": [
    {
      "constant": false,
      "inputs": [
        {
          "name": "_factor",
          "type": "uint256"
        }
      ],
      "name": "lowerPrice",
      "outputs": [
        {
          "name": "r_price",
          "type": "uint256"
        }
      ],
      "payable": false,
      "stateMutability": "nonpayable",
      "type": "function"
    },
    {
      "constant": true,
      "inputs": [],
      "name": "getValue",
      "outputs": [
        {
          "name": "val",
          "type": "uint256"
        }
      ],
      "payable": false,
      "stateMutability": "view",
      "type": "function"
    },
    {
      "constant": true,
      "inputs": [],
      "name": "getLowerPriceReq",
      "outputs": [
        {
          "name": "amount",
          "type": "uint256"
        }
      ],
      "payable": false,
      "stateMutability": "view",
      "type": "function"
    },
    {
      "constant": false,
      "inputs": [],
      "name": "setInitPrice",
      "outputs": [],
      "payable": false,
      "stateMutability": "nonpayable",
      "type": "function"
    },
    {
      "constant": false,
      "inputs": [
        {
          "name": "_litre_price",
          "type": "uint8"
        }
      ],
      "name": "setLitrePrice",
      "outputs": [
        {
          "name": "r_litre_price",
          "type": "uint8"
        }
      ],
      "payable": false,
      "stateMutability": "nonpayable",
      "type": "function"
    },
    {
      "constant": true,
      "inputs": [],
      "name": "getTime",
      "outputs": [
        {
          "name": "r_time",
          "type": "uint256"
        }
      ],
      "payable": false,
      "stateMutability": "view",
      "type": "function"
    },
    {
      "constant": false,
      "inputs": [],
      "name": "resetWaterUsage",
      "outputs": [
        {
          "name": "usage",
          "type": "uint256"
        }
      ],
      "payable": false,
      "stateMutability": "nonpayable",
      "type": "function"
    },
    {
      "constant": false,
      "inputs": [
        {
          "name": "_factor",
          "type": "uint256"
        }
      ],
      "name": "setLowerPriceReqFactor",
      "outputs": [
        {
          "name": "factor",
          "type": "uint256"
        }
      ],
      "payable": false,
      "stateMutability": "nonpayable",
      "type": "function"
    },
    {
      "constant": true,
      "inputs": [
        {
          "name": "_recommendedDailyUsage",
          "type": "uint256"
        }
      ],
      "name": "getOutstandingBalance",
      "outputs": [
        {
          "name": "balance",
          "type": "uint256"
        }
      ],
      "payable": false,
      "stateMutability": "view",
      "type": "function"
    },
    {
      "constant": false,
      "inputs": [
        {
          "name": "_id",
          "type": "string"
        },
        {
          "name": "_meterNumber",
          "type": "string"
        },
        {
          "name": "_residents",
          "type": "uint8"
        }
      ],
      "name": "register",
      "outputs": [],
      "payable": false,
      "stateMutability": "nonpayable",
      "type": "function"
    },
    {
      "constant": true,
      "inputs": [],
      "name": "getWaterUsage",
      "outputs": [
        {
          "name": "usage",
          "type": "uint256"
        }
      ],
      "payable": false,
      "stateMutability": "view",
      "type": "function"
    },
    {
      "constant": false,
      "inputs": [
        {
          "name": "_usage",
          "type": "uint256"
        }
      ],
      "name": "addWaterUsage",
      "outputs": [
        {
          "name": "usage",
          "type": "uint256"
        }
      ],
      "payable": false,
      "stateMutability": "nonpayable",
      "type": "function"
    },
    {
      "constant": false,
      "inputs": [],
      "name": "setTime",
      "outputs": [],
      "payable": false,
      "stateMutability": "nonpayable",
      "type": "function"
    },
    {
      "constant": false,
      "inputs": [
        {
          "name": "_penaltyFactor",
          "type": "uint8"
        }
      ],
      "name": "setPenaltyFactor",
      "outputs": [
        {
          "name": "factor",
          "type": "uint8"
        }
      ],
      "payable": false,
      "stateMutability": "nonpayable",
      "type": "function"
    },
    {
      "constant": false,
      "inputs": [
        {
          "name": "_recommendedDailyUsage",
          "type": "uint256"
        },
        {
          "name": "_bountyFactor",
          "type": "uint256"
        }
      ],
      "name": "pay",
      "outputs": [
        {
          "name": "r_voucher",
          "type": "uint256"
        },
        {
          "name": "r_amount",
          "type": "uint256"
        }
      ],
      "payable": false,
      "stateMutability": "nonpayable",
      "type": "function"
    },
    {
      "constant": true,
      "inputs": [],
      "name": "getBounty",
      "outputs": [
        {
          "name": "r_bounty",
          "type": "uint256"
        }
      ],
      "payable": false,
      "stateMutability": "view",
      "type": "function"
    },
    {
      "inputs": [],
      "payable": false,
      "stateMutability": "nonpayable",
      "type": "constructor"
    }
  ],
  "bytecode": "0x6060604052341561000f57600080fd5b61002c600161006e64010000000002610705176401000000009004565b5061004a60056100a264010000000002610d7f176401000000009004565b50610068600a6100c46401000000000261080b176401000000009004565b506100d7565b600081600660006101000a81548160ff021916908360ff160217905550600660009054906101000a900460ff169050919050565b600081600860006101000a81548160ff021916908360ff160217905550919050565b6000816007819055506007549050919050565b61151280620000e76000396000f3006060604052600436106100e6576000357c0100000000000000000000000000000000000000000000000000000000900463ffffffff1680630c3986e2146100eb578063209652551461012257806329bdeeaa1461014b57806340e94e8c14610174578063500fb48914610189578063557ed1ba146101c957806355e88ec2146101f257806387dd962d1461021b5780639b8fec3014610252578063b3f90e0a14610289578063c613d4fa14610335578063cae7fbcc1461035e578063d9276a4914610395578063ea58f11b146103aa578063ef48eee6146103ea578063f49bff7b14610431575b600080fd5b34156100f657600080fd5b61010c600480803590602001909190505061045a565b6040518082815260200191505060405180910390f35b341561012d57600080fd5b6101356105a8565b6040518082815260200191505060405180910390f35b341561015657600080fd5b61015e6105b2565b6040518082815260200191505060405180910390f35b341561017f57600080fd5b6101876106ad565b005b341561019457600080fd5b6101ad600480803560ff16906020019091905050610705565b604051808260ff1660ff16815260200191505060405180910390f35b34156101d457600080fd5b6101dc610739565b6040518082815260200191505060405180910390f35b34156101fd57600080fd5b610205610780565b6040518082815260200191505060405180910390f35b341561022657600080fd5b61023c600480803590602001909190505061080b565b6040518082815260200191505060405180910390f35b341561025d57600080fd5b610273600480803590602001909190505061081e565b6040518082815260200191505060405180910390f35b341561029457600080fd5b610333600480803590602001908201803590602001908080601f0160208091040260200160405190810160405280939291908181526020018383808284378201915050505050509190803590602001908201803590602001908080601f0160208091040260200160405190810160405280939291908181526020018383808284378201915050505050509190803560ff16906020019091905050610b4f565b005b341561034057600080fd5b610348610c65565b6040518082815260200191505060405180910390f35b341561036957600080fd5b61037f6004808035906020019091905050610cac565b6040518082815260200191505060405180910390f35b34156103a057600080fd5b6103a8610d39565b005b34156103b557600080fd5b6103ce600480803560ff16906020019091905050610d7f565b604051808260ff1660ff16815260200191505060405180910390f35b34156103f557600080fd5b6104146004808035906020019091908035906020019091905050610da1565b604051808381526020018281526020019250505060405180910390f35b341561043c57600080fd5b6104446113fb565b6040518082815260200191505060405180910390f35b6000600660009054906101000a900460ff1660ff16600360003373ffffffffffffffffffffffffffffffffffffffff1673ffffffffffffffffffffffffffffffffffffffff1681526020019081526020016000205411801561050e5750600660009054906101000a900460ff1660ff16600360003373ffffffffffffffffffffffffffffffffffffffff1673ffffffffffffffffffffffffffffffffffffffff168152602001908152602001600020540382105b156105615781600360003373ffffffffffffffffffffffffffffffffffffffff1673ffffffffffffffffffffffffffffffffffffffff168152602001908152602001600020600082825403925050819055505b600360003373ffffffffffffffffffffffffffffffffffffffff1673ffffffffffffffffffffffffffffffffffffffff168152602001908152602001600020549050919050565b6000600954905090565b600073__HouseholdLibrary______________________6367ed3862600360003373ffffffffffffffffffffffffffffffffffffffff1673ffffffffffffffffffffffffffffffffffffffff16815260200190815260200160002054600660009054906101000a900460ff166007546000604051602001526040518463ffffffff167c0100000000000000000000000000000000000000000000000000000000028152600401808481526020018360ff1660ff168152602001828152602001935050505060206040518083038186803b151561068d57600080fd5b6102c65a03f4151561069e57600080fd5b50505060405180519050905090565b600660009054906101000a900460ff1660ff16600360003373ffffffffffffffffffffffffffffffffffffffff1673ffffffffffffffffffffffffffffffffffffffff16815260200190815260200160002081905550565b600081600660006101000a81548160ff021916908360ff160217905550600660009054906101000a900460ff169050919050565b6000600460003373ffffffffffffffffffffffffffffffffffffffff1673ffffffffffffffffffffffffffffffffffffffff16815260200190815260200160002054905090565b600080600260003373ffffffffffffffffffffffffffffffffffffffff1673ffffffffffffffffffffffffffffffffffffffff16815260200190815260200160002081905550600260003373ffffffffffffffffffffffffffffffffffffffff1673ffffffffffffffffffffffffffffffffffffffff16815260200190815260200160002054905090565b6000816007819055506007549050919050565b600073__HouseholdLibrary______________________63f3f99e4c600260003373ffffffffffffffffffffffffffffffffffffffff1673ffffffffffffffffffffffffffffffffffffffff16815260200190815260200160002054600360003373ffffffffffffffffffffffffffffffffffffffff1673ffffffffffffffffffffffffffffffffffffffff1681526020019081526020016000205473__HouseholdLibrary______________________6387d41e37600260003373ffffffffffffffffffffffffffffffffffffffff1673ffffffffffffffffffffffffffffffffffffffff1681526020019081526020016000205473__HouseholdLibrary______________________6309bbcf748a42610938610739565b600a60003373ffffffffffffffffffffffffffffffffffffffff1673ffffffffffffffffffffffffffffffffffffffff16815260200190815260200160002060009054906101000a900460ff166000604051602001526040518563ffffffff167c0100000000000000000000000000000000000000000000000000000000028152600401808581526020018481526020018381526020018260ff1660ff16815260200194505050505060206040518083038186803b15156109f857600080fd5b6102c65a03f41515610a0957600080fd5b50505060405180519050600660009054906101000a900460ff16600860009054906101000a900460ff166000604051602001526040518563ffffffff167c0100000000000000000000000000000000000000000000000000000000028152600401808581526020018481526020018360ff1660ff1681526020018260ff1660ff16815260200194505050505060206040518083038186803b1515610aac57600080fd5b6102c65a03f41515610abd57600080fd5b505050604051805190506000604051602001526040518463ffffffff167c010000000000000000000000000000000000000000000000000000000002815260040180848152602001838152602001828152602001935050505060206040518083038186803b1515610b2d57600080fd5b6102c65a03f41515610b3e57600080fd5b505050604051805190509050919050565b82600160003373ffffffffffffffffffffffffffffffffffffffff1673ffffffffffffffffffffffffffffffffffffffff1681526020019081526020016000209080519060200190610ba2929190611441565b5081600560003373ffffffffffffffffffffffffffffffffffffffff1673ffffffffffffffffffffffffffffffffffffffff1681526020019081526020016000209080519060200190610bf6929190611441565b5080600a60003373ffffffffffffffffffffffffffffffffffffffff1673ffffffffffffffffffffffffffffffffffffffff16815260200190815260200160002060006101000a81548160ff021916908360ff160217905550610c57610d39565b610c5f610780565b50505050565b6000600260003373ffffffffffffffffffffffffffffffffffffffff1673ffffffffffffffffffffffffffffffffffffffff16815260200190815260200160002054905090565b600081600260003373ffffffffffffffffffffffffffffffffffffffff1673ffffffffffffffffffffffffffffffffffffffff16815260200190815260200160002081905550600260003373ffffffffffffffffffffffffffffffffffffffff1673ffffffffffffffffffffffffffffffffffffffff168152602001908152602001600020549050919050565b42600460003373ffffffffffffffffffffffffffffffffffffffff1673ffffffffffffffffffffffffffffffffffffffff16815260200190815260200160002081905550565b600081600860006101000a81548160ff021916908360ff160217905550919050565b600080600080600080925073__HouseholdLibrary______________________6309bbcf748842610dd0610739565b600a60003373ffffffffffffffffffffffffffffffffffffffff1673ffffffffffffffffffffffffffffffffffffffff16815260200190815260200160002060009054906101000a900460ff166000604051602001526040518563ffffffff167c0100000000000000000000000000000000000000000000000000000000028152600401808581526020018481526020018381526020018260ff1660ff16815260200194505050505060206040518083038186803b1515610e9057600080fd5b6102c65a03f41515610ea157600080fd5b505050604051805190509150600260003373ffffffffffffffffffffffffffffffffffffffff1673ffffffffffffffffffffffffffffffffffffffff16815260200190815260200160002054821015156110f05773__HouseholdLibrary______________________634251e8d983600260003373ffffffffffffffffffffffffffffffffffffffff1673ffffffffffffffffffffffffffffffffffffffff168152602001908152602001600020546000604051602001526040518363ffffffff167c0100000000000000000000000000000000000000000000000000000000028152600401808381526020018281526020019250505060206040518083038186803b1515610faf57600080fd5b6102c65a03f41515610fc057600080fd5b505050604051805190506000803373ffffffffffffffffffffffffffffffffffffffff1673ffffffffffffffffffffffffffffffffffffffff1681526020019081526020016000206000828254019250508190555073__HouseholdLibrary______________________634f029e416000803373ffffffffffffffffffffffffffffffffffffffff1673ffffffffffffffffffffffffffffffffffffffff16815260200190815260200160002054886000604051602001526040518363ffffffff167c0100000000000000000000000000000000000000000000000000000000028152600401808381526020018281526020019250505060206040518083038186803b15156110ce57600080fd5b6102c65a03f415156110df57600080fd5b50505060405180519050925061122f565b73__HouseholdLibrary______________________634741c84e600260003373ffffffffffffffffffffffffffffffffffffffff1673ffffffffffffffffffffffffffffffffffffffff1681526020019081526020016000205484600660009054906101000a900460ff166000604051602001526040518463ffffffff167c0100000000000000000000000000000000000000000000000000000000028152600401808481526020018381526020018260ff1660ff168152602001935050505060206040518083038186803b15156111c757600080fd5b6102c65a03f415156111d857600080fd5b50505060405180519050600360003373ffffffffffffffffffffffffffffffffffffffff1673ffffffffffffffffffffffffffffffffffffffff168152602001908152602001600020600082825401925050819055505b73__HouseholdLibrary______________________63f3f99e4c600260003373ffffffffffffffffffffffffffffffffffffffff1673ffffffffffffffffffffffffffffffffffffffff16815260200190815260200160002054600360003373ffffffffffffffffffffffffffffffffffffffff1673ffffffffffffffffffffffffffffffffffffffff16815260200190815260200160002054600080604051602001526040518463ffffffff167c010000000000000000000000000000000000000000000000000000000002815260040180848152602001838152602001828152602001935050505060206040518083038186803b151561133057600080fd5b6102c65a03f4151561134157600080fd5b505050604051805190509050611355610d39565b61135d610780565b508273__HouseholdLibrary______________________632920c21c836000604051602001526040518263ffffffff167c01000000000000000000000000000000000000000000000000000000000281526004018082815260200191505060206040518083038186803b15156113d257600080fd5b6102c65a03f415156113e357600080fd5b50505060405180519050945094505050509250929050565b60008060003373ffffffffffffffffffffffffffffffffffffffff1673ffffffffffffffffffffffffffffffffffffffff16815260200190815260200160002054905090565b828054600181600116156101000203166002900490600052602060002090601f016020900481019282601f1061148257805160ff19168380011785556114b0565b828001600101855582156114b0579182015b828111156114af578251825591602001919060010190611494565b5b5090506114bd91906114c1565b5090565b6114e391905b808211156114df5760008160009055506001016114c7565b5090565b905600a165627a7a72305820fcdb35288d1f3909b823aff498691d84aec59acf0e78cd9e9a9613b14187ebce0029",
  "source": "pragma solidity ^0.4.11;\r\n\r\nimport \"./HouseholdLibrary.sol\";\r\n\r\n/*\r\n * Zander Labuschagne se baie werk volg Hier\r\n * 23585137@protonmail.ch | zander.labuschagne@protonmail.ch\r\n * Hierdie kode word gepubliseer onder die BSD-3 nuwe of hersiende lisensie\r\n */\r\n\r\n//HouseholdContract.new().then(function(res) { sc = HouseholdContract.at(res.address) }) //tik die lyntji in truffle console om die adres te kry dan sc.xxxxxx kan methods execute\r\n\r\ncontract HouseholdContract{\r\n\r\n\t//credits/bounty van water gespaar\r\n\tmapping (address => uint256) bounty;\r\n\t//id number van persoon\r\n\tmapping (address => string) id;\r\n\t//hoeveelheid die huishouding al gebruik het\r\n\tmapping (address => uint256) cumulativeUsage;\r\n\r\n\tmapping (address => uint256) price;\r\n\r\n\tmapping (address => uint256) time;\r\n\r\n\tmapping (address => string) meterNumber;\r\n\r\n\tuint8 litre_price;\r\n\r\n\tuint256 lowerPriceReqFactor;\r\n\r\n\tuint8 penaltyFactor;\r\n\r\n\tuint256 value; //TODO: Remove on final implementation\r\n\r\n\tmapping (address => uint8) numberOfResidents;\r\n\r\n\tfunction HouseholdContract() {\r\n\t\tsetLitrePrice(1);\r\n\t\tsetPenaltyFactor(5);\r\n\t\tsetLowerPriceReqFactor(10);\r\n\t}\r\n\r\n\tfunction register(string _id, string _meterNumber, uint8 _residents) public {\r\n\t\tid[msg.sender] = _id;\r\n\t\tmeterNumber[msg.sender] = _meterNumber;\r\n\t\tnumberOfResidents[msg.sender] = _residents;\r\n\t\tsetTime();\r\n\t\tresetWaterUsage();\r\n\t}\r\n\r\n\t/*\r\n\t * To change the c/litre if desired\r\n\t**/\r\n\tfunction setLitrePrice(uint8 _litre_price) public returns (uint8 r_litre_price) {\r\n\t\tlitre_price = _litre_price;\r\n\t\treturn litre_price;\r\n\t}\r\n\r\n\t/*\r\n\t * Assign the default price of water to the contract instance\r\n\t**/\r\n\tfunction setInitPrice() public {\r\n\t\tprice[msg.sender] = litre_price;\r\n\t}\r\n\r\n\t/*\r\n\t* Called hourly or daily to update water _usage\r\n\t* Called from water metre\r\n\t**/\r\n\tfunction addWaterUsage(uint256 _usage) public returns (uint256 usage) {\r\n\t\tcumulativeUsage[msg.sender] = _usage;\r\n\t\treturn cumulativeUsage[msg.sender];\r\n\t}\r\n\r\n\t/**\r\n\t* the cumulative water usage resets every month or when the user pays\r\n\t**/\r\n\tfunction resetWaterUsage() public returns (uint256 usage) {\r\n\t\tcumulativeUsage[msg.sender] = 0;\r\n\t\t//bounty[msg.sender] = 0;\r\n\t\t//resets the Pi.... --assumption\r\n\t\treturn cumulativeUsage[msg.sender];\r\n\t}\r\n\r\n\t/*\r\n\t* calculate _recommendedCumulativeUsage from frontend\r\n\t* Pay totals price and convert remainder to bounty and return voucher as well\r\n\t*/\r\n\tfunction pay(uint256 _recommendedDailyUsage, uint256 _bountyFactor) public returns (uint256 r_voucher, uint256 r_amount) {\r\n\t\tuint256 voucher = 0;\r\n\t\tuint256 _recommendedCumulativeUsage = HouseholdLibrary.calculateRecommendedCumulativeUsage(_recommendedDailyUsage, block.timestamp, getTime(), numberOfResidents[msg.sender]);\r\n\t\tif(_recommendedCumulativeUsage >= cumulativeUsage[msg.sender]) {\r\n\t\t\tbounty[msg.sender] += HouseholdLibrary.calculateBounty(_recommendedCumulativeUsage, cumulativeUsage[msg.sender]);\r\n\t\t\tvoucher = HouseholdLibrary.calculateVoucher(bounty[msg.sender], _bountyFactor);\r\n\t\t}\r\n\t\telse\r\n\t\t\tprice[msg.sender] += HouseholdLibrary.increasePrice(cumulativeUsage[msg.sender], _recommendedCumulativeUsage, litre_price);\r\n\t\tuint256 amount = HouseholdLibrary.calculateOutstandingBalance(cumulativeUsage[msg.sender], price[msg.sender], 0);\r\n\t\tsetTime();\r\n\t\tresetWaterUsage();\r\n\t\treturn (voucher, HouseholdLibrary.centToRand(amount));\r\n\t}\r\n\r\n\t/*\r\n\t * return the amount it would cost in R at the moment to pay the water bill\r\n\t**/\r\n\tfunction getOutstandingBalance(uint256 _recommendedDailyUsage) public view returns (uint256 balance) {\r\n\t\t//uint256 _recommendedCumulativeUsage = HouseholdLibrary.calculateRecommendedCumulativeUsage(_recommendedDailyUsage, block.timestamp, getTime(), numberOfDependants[msg.sender]);\r\n\t\t/*value =*/ return HouseholdLibrary.calculateOutstandingBalance(cumulativeUsage[msg.sender], price[msg.sender], HouseholdLibrary.increasePenaltyFactor(cumulativeUsage[msg.sender], HouseholdLibrary.calculateRecommendedCumulativeUsage(_recommendedDailyUsage, block.timestamp, getTime(), numberOfResidents[msg.sender]), litre_price, penaltyFactor));\r\n\r\n\t\t//return value;\r\n\t}\r\n\r\n\t/*\r\n\t* function to lower price if it is high by paying much more tha n usual price\r\n\t**/\r\n\tfunction lowerPrice(uint256 _factor) public returns (uint256 r_price) {\r\n\t\tif(price[msg.sender] > litre_price && _factor < (price[msg.sender] - litre_price)) {\r\n\t\t\tprice[msg.sender] -= _factor;\r\n\t\t}\r\n\r\n\t\treturn price[msg.sender];\r\n\t}\r\n\r\n\t/*\r\n\t * If one wants to preview the amount to be paid in R in order to lower the price/litre if it were raised due to increasePenaltyFactor\r\n\t**/\r\n\tfunction getLowerPriceReq() public view returns (uint256 amount) {\r\n\t\treturn HouseholdLibrary.lowerPriceReq(price[msg.sender], litre_price, lowerPriceReqFactor);\r\n\t}\r\n\r\n\t/*\r\n\t * Sets the amount in R which users pay to lower the penalty payments per litre\r\n\t**/\r\n\tfunction setLowerPriceReqFactor(uint256 _factor) public returns (uint256 factor) {\r\n\t\tlowerPriceReqFactor = _factor;\r\n\t\treturn lowerPriceReqFactor;\r\n\t}\r\n\r\n\t/*\r\n\t * this is the amount the user pays per litre he overused(as well as for future payments) it is the amount of litres per cent ex: 5 would be paying 1c extra for every addisional 5l used\r\n\t * Ex; 1 would then also be paying 1c extra for every addisional litre used\r\n\t * Ex: 2 would then also be paying 1c extra for every addisional 2l used\r\n\t * This should probably be inverted but the current price is 1c per litre and 1l per 1c decrease is actually a lot\r\n\t**/\r\n\tfunction setPenaltyFactor(uint8 _penaltyFactor) public returns (uint8 factor) {\r\n\t\tpenaltyFactor = _penaltyFactor;\r\n\t}\r\n\r\n\t/*\r\n\t * Get current water usage for personal interests\r\n\t**/\r\n\tfunction getWaterUsage() public view returns (uint256 usage) {\r\n\t\treturn cumulativeUsage[msg.sender];\r\n\t}\r\n\r\n\t/*\r\n\t * Get the current bounty for testing purposes\r\n\t**/\r\n\tfunction getBounty() public view returns (uint256 r_bounty) {\r\n\t\treturn bounty[msg.sender];\r\n\t}\r\n\r\n\t/*\r\n\t * Called when payment is made to save when the user last made a payment\r\n\t**/\r\n\tfunction setTime() {\r\n\t\ttime[msg.sender] = block.timestamp;\r\n\t}\r\n\r\n\t/*\r\n\t * Accessor for the time mapping\r\n\t*/\r\n\tfunction getTime() public view returns (uint r_time) {\r\n\t\treturn time[msg.sender];\r\n\t}\r\n\r\n\t/*\r\n\t* just for testing\r\n\t*/\r\n\tfunction getValue() public view returns (uint256 val) {\r\n\t\treturn value;\r\n\t}\r\n}\r\n",
  "sourcePath": "/home/zander/GitHub/watersavings-solidity/contracts/HouseholdContract.sol",
  "compiler": {
    "name": "solc",
    "version": "0.4.18+commit.9cf6e910.Emscripten.clang"
  },
  "schemaVersion": "1.0.1",
  "updatedAt": "2018-01-31T13:19:55.312Z"
}