{
  "contractName": "HouseholdContract",
  "abi": [
    {
      "constant": false,
      "inputs": [
        {
          "name": "_factor",
          "type": "uint256"
        }
      ],
      "name": "lowerPrice",
      "outputs": [
        {
          "name": "r_price",
          "type": "uint256"
        }
      ],
      "payable": false,
      "stateMutability": "nonpayable",
      "type": "function"
    },
    {
      "constant": true,
      "inputs": [],
      "name": "getLowerPriceReq",
      "outputs": [
        {
          "name": "amount",
          "type": "uint256"
        }
      ],
      "payable": false,
      "stateMutability": "view",
      "type": "function"
    },
    {
      "constant": false,
      "inputs": [],
      "name": "setInitPrice",
      "outputs": [],
      "payable": false,
      "stateMutability": "nonpayable",
      "type": "function"
    },
    {
      "constant": false,
      "inputs": [
        {
          "name": "_litre_price",
          "type": "uint8"
        }
      ],
      "name": "setLitrePrice",
      "outputs": [
        {
          "name": "r_litre_price",
          "type": "uint8"
        }
      ],
      "payable": false,
      "stateMutability": "nonpayable",
      "type": "function"
    },
    {
      "constant": false,
      "inputs": [],
      "name": "resetWaterUsage",
      "outputs": [
        {
          "name": "usage",
          "type": "uint256"
        }
      ],
      "payable": false,
      "stateMutability": "nonpayable",
      "type": "function"
    },
    {
      "constant": false,
      "inputs": [
        {
          "name": "_id",
          "type": "string"
        }
      ],
      "name": "setId",
      "outputs": [
        {
          "name": "r_id",
          "type": "string"
        }
      ],
      "payable": false,
      "stateMutability": "nonpayable",
      "type": "function"
    },
    {
      "constant": true,
      "inputs": [
        {
          "name": "_recommendedCumulativeUsage",
          "type": "uint256"
        }
      ],
      "name": "getOutstandingBalance",
      "outputs": [
        {
          "name": "balance",
          "type": "uint256"
        }
      ],
      "payable": false,
      "stateMutability": "view",
      "type": "function"
    },
    {
      "constant": true,
      "inputs": [],
      "name": "getWaterUsage",
      "outputs": [
        {
          "name": "usage",
          "type": "uint256"
        }
      ],
      "payable": false,
      "stateMutability": "view",
      "type": "function"
    },
    {
      "constant": false,
      "inputs": [
        {
          "name": "_usage",
          "type": "uint256"
        }
      ],
      "name": "addWaterUsage",
      "outputs": [
        {
          "name": "usage",
          "type": "uint256"
        }
      ],
      "payable": false,
      "stateMutability": "nonpayable",
      "type": "function"
    },
    {
      "constant": false,
      "inputs": [
        {
          "name": "_recommendedCumulativeUsage",
          "type": "uint256"
        },
        {
          "name": "_bountyFactor",
          "type": "uint256"
        }
      ],
      "name": "pay",
      "outputs": [
        {
          "name": "r_voucher",
          "type": "uint256"
        },
        {
          "name": "r_amount",
          "type": "uint256"
        }
      ],
      "payable": false,
      "stateMutability": "nonpayable",
      "type": "function"
    },
    {
      "constant": true,
      "inputs": [],
      "name": "getBounty",
      "outputs": [
        {
          "name": "r_bounty",
          "type": "uint256"
        }
      ],
      "payable": false,
      "stateMutability": "view",
      "type": "function"
    },
    {
      "inputs": [],
      "payable": false,
      "stateMutability": "nonpayable",
      "type": "constructor"
    }
  ],
  "bytecode": "0x6060604052341561000f57600080fd5b61002c600161004d640100000000026105a8176401000000009004565b5061004861008164010000000002610550176401000000009004565b6100d9565b600081600460006101000a81548160ff021916908360ff160217905550600460009054906101000a900460ff169050919050565b600460009054906101000a900460ff1660ff16600360003373ffffffffffffffffffffffffffffffffffffffff1673ffffffffffffffffffffffffffffffffffffffff16815260200190815260200160002081905550565b61114a806100e86000396000f3006060604052600436106100af576000357c0100000000000000000000000000000000000000000000000000000000900463ffffffff1680630c3986e2146100b457806329bdeeaa146100eb57806340e94e8c14610114578063500fb4891461012957806355e88ec21461016957806387e4396c146101925780639b8fec3014610268578063c613d4fa1461029f578063cae7fbcc146102c8578063ef48eee6146102ff578063f49bff7b14610346575b600080fd5b34156100bf57600080fd5b6100d5600480803590602001909190505061036f565b6040518082815260200191505060405180910390f35b34156100f657600080fd5b6100fe61045f565b6040518082815260200191505060405180910390f35b341561011f57600080fd5b610127610550565b005b341561013457600080fd5b61014d600480803560ff169060200190919050506105a8565b604051808260ff1660ff16815260200191505060405180910390f35b341561017457600080fd5b61017c6105dc565b6040518082815260200191505060405180910390f35b341561019d57600080fd5b6101ed600480803590602001908201803590602001908080601f01602080910402602001604051908101604052809392919081815260200183838082843782019150505050505091905050610667565b6040518080602001828103825283818151815260200191508051906020019080838360005b8381101561022d578082015181840152602081019050610212565b50505050905090810190601f16801561025a5780820380516001836020036101000a031916815260200191505b509250505060405180910390f35b341561027357600080fd5b61028960048080359060200190919050506107a2565b6040518082815260200191505060405180910390f35b34156102aa57600080fd5b6102b26109b8565b6040518082815260200191505060405180910390f35b34156102d357600080fd5b6102e960048080359060200190919050506109ff565b6040518082815260200191505060405180910390f35b341561030a57600080fd5b6103296004808035906020019091908035906020019091905050610a8c565b604051808381526020018281526020019250505060405180910390f35b341561035157600080fd5b61035961101f565b6040518082815260200191505060405180910390f35b6000600460009054906101000a900460ff1660ff16600360003373ffffffffffffffffffffffffffffffffffffffff1673ffffffffffffffffffffffffffffffffffffffff1681526020019081526020016000205411156104185781600360003373ffffffffffffffffffffffffffffffffffffffff1673ffffffffffffffffffffffffffffffffffffffff168152602001908152602001600020600082825403925050819055505b600360003373ffffffffffffffffffffffffffffffffffffffff1673ffffffffffffffffffffffffffffffffffffffff168152602001908152602001600020549050919050565b600073__HouseholdLibrary______________________6387ea2fb8600360003373ffffffffffffffffffffffffffffffffffffffff1673ffffffffffffffffffffffffffffffffffffffff16815260200190815260200160002054600460009054906101000a900460ff166000604051602001526040518363ffffffff167c0100000000000000000000000000000000000000000000000000000000028152600401808381526020018260ff1660ff1681526020019250505060206040518083038186803b151561053057600080fd5b6102c65a03f4151561054157600080fd5b50505060405180519050905090565b600460009054906101000a900460ff1660ff16600360003373ffffffffffffffffffffffffffffffffffffffff1673ffffffffffffffffffffffffffffffffffffffff16815260200190815260200160002081905550565b600081600460006101000a81548160ff021916908360ff160217905550600460009054906101000a900460ff169050919050565b600080600260003373ffffffffffffffffffffffffffffffffffffffff1673ffffffffffffffffffffffffffffffffffffffff16815260200190815260200160002081905550600260003373ffffffffffffffffffffffffffffffffffffffff1673ffffffffffffffffffffffffffffffffffffffff16815260200190815260200160002054905090565b61066f611065565b81600160003373ffffffffffffffffffffffffffffffffffffffff1673ffffffffffffffffffffffffffffffffffffffff16815260200190815260200160002090805190602001906106c2929190611079565b50600160003373ffffffffffffffffffffffffffffffffffffffff1673ffffffffffffffffffffffffffffffffffffffff1681526020019081526020016000208054600181600116156101000203166002900480601f0160208091040260200160405190810160405280929190818152602001828054600181600116156101000203166002900480156107965780601f1061076b57610100808354040283529160200191610796565b820191906000526020600020905b81548152906001019060200180831161077957829003601f168201915b50505050509050919050565b600073__HouseholdLibrary______________________63f3f99e4c600260003373ffffffffffffffffffffffffffffffffffffffff1673ffffffffffffffffffffffffffffffffffffffff16815260200190815260200160002054600360003373ffffffffffffffffffffffffffffffffffffffff1673ffffffffffffffffffffffffffffffffffffffff1681526020019081526020016000205473__HouseholdLibrary______________________6372e3fc6f600260003373ffffffffffffffffffffffffffffffffffffffff1673ffffffffffffffffffffffffffffffffffffffff1681526020019081526020016000205488600460009054906101000a900460ff166000604051602001526040518463ffffffff167c0100000000000000000000000000000000000000000000000000000000028152600401808481526020018381526020018260ff1660ff168152602001935050505060206040518083038186803b151561091557600080fd5b6102c65a03f4151561092657600080fd5b505050604051805190506000604051602001526040518463ffffffff167c010000000000000000000000000000000000000000000000000000000002815260040180848152602001838152602001828152602001935050505060206040518083038186803b151561099657600080fd5b6102c65a03f415156109a757600080fd5b505050604051805190509050919050565b6000600260003373ffffffffffffffffffffffffffffffffffffffff1673ffffffffffffffffffffffffffffffffffffffff16815260200190815260200160002054905090565b600081600260003373ffffffffffffffffffffffffffffffffffffffff1673ffffffffffffffffffffffffffffffffffffffff16815260200190815260200160002081905550600260003373ffffffffffffffffffffffffffffffffffffffff1673ffffffffffffffffffffffffffffffffffffffff168152602001908152602001600020549050919050565b60008060008060009150600260003373ffffffffffffffffffffffffffffffffffffffff1673ffffffffffffffffffffffffffffffffffffffff1681526020019081526020016000205486101515610d1d5773__HouseholdLibrary______________________634251e8d987600260003373ffffffffffffffffffffffffffffffffffffffff1673ffffffffffffffffffffffffffffffffffffffff168152602001908152602001600020546000604051602001526040518363ffffffff167c0100000000000000000000000000000000000000000000000000000000028152600401808381526020018281526020019250505060206040518083038186803b1515610b9857600080fd5b6102c65a03f41515610ba957600080fd5b505050604051805190506000803373ffffffffffffffffffffffffffffffffffffffff1673ffffffffffffffffffffffffffffffffffffffff1681526020019081526020016000206000828254019250508190555073__HouseholdLibrary______________________634f029e416000803373ffffffffffffffffffffffffffffffffffffffff1673ffffffffffffffffffffffffffffffffffffffff16815260200190815260200160002054876000604051602001526040518363ffffffff167c0100000000000000000000000000000000000000000000000000000000028152600401808381526020018281526020019250505060206040518083038186803b1515610cb757600080fd5b6102c65a03f41515610cc857600080fd5b50505060405180519050915060008060003373ffffffffffffffffffffffffffffffffffffffff1673ffffffffffffffffffffffffffffffffffffffff16815260200190815260200160002081905550610e5c565b73__HouseholdLibrary______________________634741c84e600260003373ffffffffffffffffffffffffffffffffffffffff1673ffffffffffffffffffffffffffffffffffffffff1681526020019081526020016000205488600460009054906101000a900460ff166000604051602001526040518463ffffffff167c0100000000000000000000000000000000000000000000000000000000028152600401808481526020018381526020018260ff1660ff168152602001935050505060206040518083038186803b1515610df457600080fd5b6102c65a03f41515610e0557600080fd5b50505060405180519050600360003373ffffffffffffffffffffffffffffffffffffffff1673ffffffffffffffffffffffffffffffffffffffff168152602001908152602001600020600082825401925050819055505b73__HouseholdLibrary______________________63f3f99e4c600260003373ffffffffffffffffffffffffffffffffffffffff1673ffffffffffffffffffffffffffffffffffffffff16815260200190815260200160002054600360003373ffffffffffffffffffffffffffffffffffffffff1673ffffffffffffffffffffffffffffffffffffffff16815260200190815260200160002054600080604051602001526040518463ffffffff167c010000000000000000000000000000000000000000000000000000000002815260040180848152602001838152602001828152602001935050505060206040518083038186803b1515610f5d57600080fd5b6102c65a03f41515610f6e57600080fd5b505050604051805190509050610f826105dc565b508173__HouseholdLibrary______________________632920c21c836000604051602001526040518263ffffffff167c01000000000000000000000000000000000000000000000000000000000281526004018082815260200191505060206040518083038186803b1515610ff757600080fd5b6102c65a03f4151561100857600080fd5b505050604051805190509350935050509250929050565b60008060003373ffffffffffffffffffffffffffffffffffffffff1673ffffffffffffffffffffffffffffffffffffffff16815260200190815260200160002054905090565b602060405190810160405280600081525090565b828054600181600116156101000203166002900490600052602060002090601f016020900481019282601f106110ba57805160ff19168380011785556110e8565b828001600101855582156110e8579182015b828111156110e75782518255916020019190600101906110cc565b5b5090506110f591906110f9565b5090565b61111b91905b808211156111175760008160009055506001016110ff565b5090565b905600a165627a7a7230582070f38acf918d6e6cfb6b8c87711c6fda97b33b78e0efa06355dec2f18ae4ed770029",
  "source": "pragma solidity ^0.4.11;\r\n\r\nimport \"./HouseholdLibrary.sol\";\r\n\r\n/*\r\n * Zander Labuschagne se baie werk volg Hier\r\n * 23585137@protonmail.ch | zander.labuschagne@protonmail.ch\r\n * Hierdie kode word gepubliseer onder die BSD-3 nuwe of hersiende lisensie\r\n */\r\n\r\n//HouseHoldContract.new().then(function(res) { sc = HouseHoldContract.at(res.address) }) //tik die lyntji in truffle console om die adres te kry dan sc.xxxxxx kan methods execute\r\n\r\ncontract HouseholdContract {\r\n\r\n\t//credits/bounty van water gespaar\r\n\tmapping (address => uint256) bounty;\r\n\t//id number van persoon\r\n\tmapping (address => string) id;\r\n\t//hoeveelheid die huishouding al gebruik het\r\n\tmapping (address => uint256) cumulativeUsage;\r\n\r\n\tmapping (address => uint256) price;\r\n\r\n\tuint8 private litre_price;\r\n\r\n\tfunction HouseholdContract() {\r\n\t\tsetLitrePrice(1);\r\n\t\tsetInitPrice();\r\n\t}\r\n\r\n\t/*\r\n\t * To change the R/litre if desired\r\n\t**/\r\n\tfunction setLitrePrice(uint8 _litre_price) public returns (uint8 r_litre_price) {\r\n\t\tlitre_price = _litre_price;\r\n\t\treturn litre_price;\r\n\t}\r\n\r\n\t/*\r\n\t * Set the SA ID number to link the contract instance to the person responsible for the HouseHoldContract\r\n\t**/\r\n\tfunction setId(string _id) public returns (string r_id) {\r\n\t\tid[msg.sender] = _id;\r\n\t\treturn id[msg.sender];\r\n\t}\r\n\r\n\t/*\r\n\t * Assign the default price of water to the contract instance\r\n\t**/\r\n\tfunction setInitPrice() public {\r\n\t\tprice[msg.sender] = litre_price;\r\n\t}\r\n\r\n\t/*\r\n\t* Called hourly or daily to update water _usage\r\n\t* Called from water metre\r\n\t**/\r\n\tfunction addWaterUsage(uint256 _usage) public returns (uint256 usage) {\r\n\t\tcumulativeUsage[msg.sender] = _usage;\r\n\t\treturn cumulativeUsage[msg.sender];\r\n\t}\r\n\r\n\t/**\r\n\t* the cumulative water usage resets every month or when the user pays\r\n\t**/\r\n\tfunction resetWaterUsage() public returns (uint256 usage) {\r\n\t\tcumulativeUsage[msg.sender] = 0;\r\n\t\t//resets the Pi.... --assumption\r\n\t\treturn cumulativeUsage[msg.sender];\r\n\t}\r\n\r\n\t/*\r\n\t* calculate _recommendedCumulativeUsage from frontend\r\n\t* Pay totals price and convert remainder to bounty and return voucher as well\r\n\t*/\r\n\tfunction pay(uint256 _recommendedCumulativeUsage, uint256 _bountyFactor) public returns (uint256 r_voucher, uint256 r_amount) {\r\n\t\tuint256 voucher = 0;\r\n\t\tif (_recommendedCumulativeUsage >= cumulativeUsage[msg.sender]) {\r\n\t\t\tbounty[msg.sender] += HouseholdLibrary.calculateBounty(_recommendedCumulativeUsage, cumulativeUsage[msg.sender]);\r\n\t\t\tvoucher = HouseholdLibrary.calculateVoucher(bounty[msg.sender], _bountyFactor);\r\n\t\t\tbounty[msg.sender] = 0;\r\n\t\t}\r\n\t\telse\r\n\t\t\tprice[msg.sender] += HouseholdLibrary.increasePrice(cumulativeUsage[msg.sender], _recommendedCumulativeUsage, litre_price);\r\n\t\tuint256 amount = HouseholdLibrary.calculateOutstandingBalance(cumulativeUsage[msg.sender], price[msg.sender], 0);\r\n\t\tresetWaterUsage();\r\n\t\treturn (voucher, HouseholdLibrary.centToRand(amount));\r\n\t}\r\n\r\n\tfunction getOutstandingBalance(uint256 _recommendedCumulativeUsage) view returns (uint256 balance) {\r\n\t\treturn HouseholdLibrary.calculateOutstandingBalance(cumulativeUsage[msg.sender], price[msg.sender], HouseholdLibrary.increasePenaltyFactor(cumulativeUsage[msg.sender], _recommendedCumulativeUsage, litre_price));\r\n\t}\r\n\r\n\t/*\r\n\t* function to lower price if it is high by paying much more tha n usual price\r\n\t**/\r\n\tfunction lowerPrice(uint256 _factor) public returns (uint256 r_price) {\r\n\t\tif (price[msg.sender] > litre_price) {\r\n\t\t\tprice[msg.sender] -= _factor;\r\n\t\t}\r\n\r\n\t\treturn price[msg.sender];\r\n\t}\r\n\r\n\t/*\r\n\t * If one wants to preview the amount to be paid in order to lower the price/litre if it were raised due to increasePenaltyFactor\r\n\t**/\r\n\tfunction getLowerPriceReq() public view returns (uint256 amount) {\r\n\t\treturn HouseholdLibrary.lowerPriceReq(price[msg.sender], litre_price);\r\n\t}\r\n\r\n\t/*\r\n\t * Get current water usage for personal interests\r\n\t**/\r\n\tfunction getWaterUsage() public view returns (uint256 usage) {\r\n\t\treturn cumulativeUsage[msg.sender];\r\n\t}\r\n\r\n\t/*\r\n\t * Get the current bounty for testing purposes\r\n\t**/\r\n\tfunction getBounty() public view returns (uint256 r_bounty) {\r\n\t\treturn bounty[msg.sender];\r\n\t}\r\n}\r\n",
  "sourcePath": "/home/nicolaas/hackathon/contracts/HouseholdContract.sol",
  "compiler": {
    "name": "solc",
    "version": "0.4.18+commit.9cf6e910.Emscripten.clang"
  },
  "schemaVersion": "1.0.1",
  "updatedAt": "2018-01-31T11:33:08.151Z"
}