{
  "contractName": "HouseholdLibrary",
  "abi": [
    {
      "constant": true,
      "inputs": [
        {
          "name": "_cents",
          "type": "uint256"
        }
      ],
      "name": "centToRand",
      "outputs": [
        {
          "name": "rands",
          "type": "uint256"
        }
      ],
      "payable": false,
      "stateMutability": "pure",
      "type": "function"
    },
    {
      "constant": true,
      "inputs": [
        {
          "name": "_recommendedCumulativeUsage",
          "type": "uint256"
        },
        {
          "name": "_userCumulativeUsage",
          "type": "uint256"
        }
      ],
      "name": "calculateBounty",
      "outputs": [
        {
          "name": "bounty",
          "type": "uint256"
        }
      ],
      "payable": false,
      "stateMutability": "pure",
      "type": "function"
    },
    {
      "constant": true,
      "inputs": [
        {
          "name": "_usage",
          "type": "uint256"
        },
        {
          "name": "_recommendedUsage",
          "type": "uint256"
        },
        {
          "name": "_litre_price",
          "type": "uint8"
        }
      ],
      "name": "increasePrice",
      "outputs": [
        {
          "name": "newPrice",
          "type": "uint256"
        }
      ],
      "payable": false,
      "stateMutability": "pure",
      "type": "function"
    },
    {
      "constant": true,
      "inputs": [
        {
          "name": "_bounty",
          "type": "uint256"
        },
        {
          "name": "_factor",
          "type": "uint256"
        }
      ],
      "name": "calculateVoucher",
      "outputs": [
        {
          "name": "voucher",
          "type": "uint256"
        }
      ],
      "payable": false,
      "stateMutability": "pure",
      "type": "function"
    },
    {
      "constant": true,
      "inputs": [
        {
          "name": "_usage",
          "type": "uint256"
        },
        {
          "name": "_recommendedUsage",
          "type": "uint256"
        },
        {
          "name": "_litre_price",
          "type": "uint8"
        }
      ],
      "name": "increasePenaltyFactor",
      "outputs": [
        {
          "name": "factor",
          "type": "uint256"
        }
      ],
      "payable": false,
      "stateMutability": "pure",
      "type": "function"
    },
    {
      "constant": true,
      "inputs": [
        {
          "name": "_price",
          "type": "uint256"
        },
        {
          "name": "_litre_price",
          "type": "uint8"
        }
      ],
      "name": "lowerPriceReq",
      "outputs": [
        {
          "name": "price",
          "type": "uint256"
        }
      ],
      "payable": false,
      "stateMutability": "pure",
      "type": "function"
    },
    {
      "constant": true,
      "inputs": [
        {
          "name": "_usage",
          "type": "uint256"
        },
        {
          "name": "_price",
          "type": "uint256"
        },
        {
          "name": "_factor",
          "type": "uint256"
        }
      ],
      "name": "calculateOutstandingBalance",
      "outputs": [
        {
          "name": "amount",
          "type": "uint256"
        }
      ],
      "payable": false,
      "stateMutability": "pure",
      "type": "function"
    }
  ],
  "bytecode": "0x6060604052341561000f57600080fd5b6102de8061001e6000396000f300606060405260043610610083576000357c0100000000000000000000000000000000000000000000000000000000900463ffffffff1680632920c21c146100885780634251e8d9146100b45780634741c84e146100e95780634f029e411461012a57806372e3fc6f1461015f57806387ea2fb8146101a0578063f3f99e4c146101d8575b600080fd5b61009e6004808035906020019091905050610216565b6040518082815260200191505060405180910390f35b6100d3600480803590602001909190803590602001909190505061022c565b6040518082815260200191505060405180910390f35b610114600480803590602001909190803590602001909190803560ff16906020019091905050610239565b6040518082815260200191505060405180910390f35b610149600480803590602001909190803590602001909190505061024c565b6040518082815260200191505060405180910390f35b61018a600480803590602001909190803590602001909190803560ff16906020019091905050610259565b6040518082815260200191505060405180910390f35b6101c2600480803590602001909190803560ff1690602001909190505061027e565b6040518082815260200191505060405180910390f35b610200600480803590602001909190803590602001909190803590602001909190505061029a565b6040518082815260200191505060405180910390f35b600060648281151561022457fe5b049050919050565b6000818303905092915050565b60008284038260ff160290509392505050565b6000818302905092915050565b600083831015610272578284038260ff16029050610277565b600090505b9392505050565b6000610292610bb88360ff16850302610216565b905092915050565b60006102a98284018502610216565b905093925050505600a165627a7a723058203cb44ac6586ed285c2d4d4e284cc3b27a93aba7604402df48111112dabc2a2790029",
  "source": "pragma solidity ^0.4.11;\r\n\r\n/*\r\n * Zander Labuschagne se baie werk volg Hier\r\n * 23585137@protonmail.ch | zander.labuschagne@protonmail.ch\r\n * Hierdie kode word gepubliseer onder die GNU GPL weergawe 2 lisensie\r\n */\r\n\r\nlibrary HouseholdLibrary {\r\n\tfunction calculateBounty(uint256 _recommendedCumulativeUsage, uint256 _userCumulativeUsage) public pure returns (uint256 bounty) {\r\n\t\treturn _recommendedCumulativeUsage - _userCumulativeUsage;\r\n\t}\r\n\r\n\tfunction calculateVoucher(uint256 _bounty, uint256 _factor) public pure returns (uint256 voucher){\r\n\t\treturn _bounty * _factor;\r\n\t}\r\n\r\n\tfunction increasePrice(uint256 _usage, uint256 _recommendedUsage, uint8 _litre_price) public pure returns (uint256 newPrice) {\r\n\t\treturn _litre_price * (_usage - _recommendedUsage);\r\n\t}\r\n\r\n\t/*function getAmountToPay(uint256 _usage, uint256 _price) public pure returns (uint256 amount) {\r\n\t\treturn _usage * _price;\r\n\t}*/\r\n\r\n\tfunction centToRand(uint256 _cents) public pure returns (uint256 rands) {\r\n\t\treturn _cents / 100;\r\n\t}\r\n\r\n\tfunction increasePenaltyFactor(uint256 _usage, uint256 _recommendedUsage, uint8 _litre_price) public pure returns (uint256 factor) {\r\n\t\tif(_recommendedUsage < _usage)\r\n\t\t\treturn _litre_price * (_usage - _recommendedUsage);\r\n\t\telse\r\n\t\t\treturn 0;\r\n\t}\r\n\r\n\tfunction calculateOutstandingBalance(uint256 _usage, uint256 _price, uint256 _factor) public pure returns (uint256 amount) {\r\n\t\treturn centToRand(_usage * (_price + _factor));\r\n\t}\r\n\r\n\tfunction lowerPriceReq(uint256 _price, uint8 _litre_price) public pure returns (uint256 price) {\r\n\t\treturn centToRand((_price - _litre_price) * 3000);\r\n\t}\r\n}\r\n",
  "sourcePath": "/home/zander/GitHub/watersavings-solidity/contracts/HouseholdLibrary.sol",
  "compiler": {
    "name": "solc",
    "version": "0.4.18+commit.9cf6e910.Emscripten.clang"
  },
  "schemaVersion": "1.0.1",
  "updatedAt": "2018-01-30T18:52:52.062Z"
}