{
  "contractName": "HouseholdContract",
  "abi": [
    {
      "constant": true,
      "inputs": [
        {
          "name": "_recommendedCumulativeUsage",
          "type": "uint256"
        },
        {
          "name": "_user",
          "type": "address"
        },
        {
          "name": "_bountyFactor",
          "type": "uint256"
        }
      ],
      "name": "getBounty",
      "outputs": [
        {
          "name": "voucher",
          "type": "uint256"
        }
      ],
      "payable": false,
      "stateMutability": "view",
      "type": "function"
    },
    {
      "constant": false,
      "inputs": [
        {
          "name": "_user",
          "type": "address"
        }
      ],
      "name": "resetWaterUsage",
      "outputs": [
        {
          "name": "",
          "type": "uint256"
        }
      ],
      "payable": false,
      "stateMutability": "nonpayable",
      "type": "function"
    },
    {
      "constant": false,
      "inputs": [
        {
          "name": "_usage",
          "type": "uint256"
        },
        {
          "name": "_user",
          "type": "address"
        }
      ],
      "name": "addWaterUsage",
      "outputs": [
        {
          "name": "",
          "type": "uint256"
        }
      ],
      "payable": false,
      "stateMutability": "nonpayable",
      "type": "function"
    },
    {
      "inputs": [],
      "payable": false,
      "stateMutability": "nonpayable",
      "type": "constructor"
    }
  ],
  "bytecode": "0x6060604052341561000f57600080fd5b6104a58061001e6000396000f300606060405260043610610057576000357c0100000000000000000000000000000000000000000000000000000000900463ffffffff16806387c021121461005c578063a367ff7c146100bb578063ac64c18114610108575b600080fd5b341561006757600080fd5b6100a5600480803590602001909190803573ffffffffffffffffffffffffffffffffffffffff1690602001909190803590602001909190505061015e565b6040518082815260200191505060405180910390f35b34156100c657600080fd5b6100f2600480803573ffffffffffffffffffffffffffffffffffffffff1690602001909190505061035e565b6040518082815260200191505060405180910390f35b341561011357600080fd5b610148600480803590602001909190803573ffffffffffffffffffffffffffffffffffffffff169060200190919050506103eb565b6040518082815260200191505060405180910390f35b600073__HouseholdLibrary______________________634251e8d985600260008773ffffffffffffffffffffffffffffffffffffffff1673ffffffffffffffffffffffffffffffffffffffff168152602001908152602001600020546000604051602001526040518363ffffffff167c0100000000000000000000000000000000000000000000000000000000028152600401808381526020018281526020019250505060206040518083038186803b151561021a57600080fd5b6102c65a03f4151561022b57600080fd5b505050604051805190506000808573ffffffffffffffffffffffffffffffffffffffff1673ffffffffffffffffffffffffffffffffffffffff168152602001908152602001600020819055506102808361035e565b5073__HouseholdLibrary______________________634f029e416000808673ffffffffffffffffffffffffffffffffffffffff1673ffffffffffffffffffffffffffffffffffffffff16815260200190815260200160002054846000604051602001526040518363ffffffff167c0100000000000000000000000000000000000000000000000000000000028152600401808381526020018281526020019250505060206040518083038186803b151561033a57600080fd5b6102c65a03f4151561034b57600080fd5b5050506040518051905090509392505050565b600080600260008473ffffffffffffffffffffffffffffffffffffffff1673ffffffffffffffffffffffffffffffffffffffff16815260200190815260200160002081905550600260008373ffffffffffffffffffffffffffffffffffffffff1673ffffffffffffffffffffffffffffffffffffffff168152602001908152602001600020549050919050565b600082600260008473ffffffffffffffffffffffffffffffffffffffff1673ffffffffffffffffffffffffffffffffffffffff16815260200190815260200160002081905550600260008373ffffffffffffffffffffffffffffffffffffffff1673ffffffffffffffffffffffffffffffffffffffff168152602001908152602001600020549050929150505600a165627a7a72305820df5b63de0228d9f3974910b5030667f0bf3618fff0c257822242daa75e9b00130029",
  "source": "pragma solidity ^0.4.11;\r\n\r\nimport \"./HouseholdLibrary.sol\";\r\n\r\ncontract HouseholdContract{\r\n\r\n\t//credits/bounty van water gespaar\r\n\tmapping (address => uint256) bounty;\r\n\t//id number van persoon\r\n\tmapping (address => string) id;\r\n\t//hoeveelheid die huishouding al gebruik het\r\n\tmapping (address => uint256) cumulativeUsage;\r\n\r\n\t/**\r\n\t* TODO: add stuff\r\n\t**/\r\n\tfunction HouseholdContract() {\r\n\r\n\t}\r\n\r\n\t/*\r\n\t* Called hourly or daily to update water _usage\r\n\t**/\r\n\tfunction addWaterUsage(uint256 _usage, address _user) public returns (uint256) {\r\n\t\tcumulativeUsage[_user] = _usage;\r\n\t\treturn cumulativeUsage[_user];\r\n\t}\r\n\r\n\t/**\r\n\t* the cumulative water usage resets every month or when the user pays\r\n\t**/\r\n\tfunction resetWaterUsage(address _user) public returns (uint256) {\r\n\t\tcumulativeUsage[_user] = 0;\r\n\t\treturn cumulativeUsage[_user];\r\n\t}\r\n\r\n\t/*\r\n\t* Called once a month, but updated regularly offchain\r\n\t* calculate _recommendedCumulativeUsage from frontend\r\n\t* Pay totals price and convert remainder to bounty\r\n\t*/\r\n\tfunction getBounty(uint256 _recommendedCumulativeUsage, address _user, uint256 _bountyFactor) view returns (uint256 voucher) {\r\n\t\tbounty[_user] = HouseholdLibrary.calculateBounty(_recommendedCumulativeUsage, cumulativeUsage[_user]);\r\n\t\tresetWaterUsage(_user);\r\n\t\treturn HouseholdLibrary.calculateVoucher(bounty[_user], _bountyFactor);\r\n\t}\r\n}\r\n",
  "sourcePath": "/home/zander/GitHub/watersavings-solidity/contracts/HouseholdContract.sol",
  "compiler": {
    "name": "solc",
    "version": "0.4.18+commit.9cf6e910.Emscripten.clang"
  },
  "schemaVersion": "1.0.1",
  "updatedAt": "2018-01-30T08:09:22.611Z"
}