{
  "contractName": "HouseholdLibrary",
  "abi": [
    {
      "constant": false,
      "inputs": [
        {
          "name": "_recommendedDailyUsage",
          "type": "uint256"
        },
        {
          "name": "_current",
          "type": "uint256"
        },
        {
          "name": "_previous",
          "type": "uint256"
        },
        {
          "name": "_deps",
          "type": "uint8"
        }
      ],
      "name": "calculateRecommendedCumulativeUsage",
      "outputs": [
        {
          "name": "cumulativeUsage",
          "type": "uint256"
        }
      ],
      "payable": false,
      "stateMutability": "nonpayable",
      "type": "function"
    },
    {
      "constant": true,
      "inputs": [
        {
          "name": "_cents",
          "type": "uint256"
        }
      ],
      "name": "centToRand",
      "outputs": [
        {
          "name": "rands",
          "type": "uint256"
        }
      ],
      "payable": false,
      "stateMutability": "pure",
      "type": "function"
    },
    {
      "constant": true,
      "inputs": [
        {
          "name": "_recommendedCumulativeUsage",
          "type": "uint256"
        },
        {
          "name": "_userCumulativeUsage",
          "type": "uint256"
        }
      ],
      "name": "calculateBounty",
      "outputs": [
        {
          "name": "bounty",
          "type": "uint256"
        }
      ],
      "payable": false,
      "stateMutability": "pure",
      "type": "function"
    },
    {
      "constant": true,
      "inputs": [
        {
          "name": "_usage",
          "type": "uint256"
        },
        {
          "name": "_recommendedUsage",
          "type": "uint256"
        },
        {
          "name": "_litre_price",
          "type": "uint8"
        }
      ],
      "name": "increasePrice",
      "outputs": [
        {
          "name": "newPrice",
          "type": "uint256"
        }
      ],
      "payable": false,
      "stateMutability": "pure",
      "type": "function"
    },
    {
      "constant": true,
      "inputs": [
        {
          "name": "_bounty",
          "type": "uint256"
        },
        {
          "name": "_factor",
          "type": "uint256"
        }
      ],
      "name": "calculateVoucher",
      "outputs": [
        {
          "name": "voucher",
          "type": "uint256"
        }
      ],
      "payable": false,
      "stateMutability": "pure",
      "type": "function"
    },
    {
      "constant": true,
      "inputs": [
        {
          "name": "_time1",
          "type": "uint256"
        },
        {
          "name": "_time2",
          "type": "uint256"
        }
      ],
      "name": "getTimeDifferenceDays",
      "outputs": [
        {
          "name": "timeDifference",
          "type": "uint256"
        }
      ],
      "payable": false,
      "stateMutability": "pure",
      "type": "function"
    },
    {
      "constant": true,
      "inputs": [
        {
          "name": "_price",
          "type": "uint256"
        },
        {
          "name": "_litre_price",
          "type": "uint8"
        },
        {
          "name": "_decreasePricePaymentFactor",
          "type": "uint256"
        }
      ],
      "name": "lowerPriceReq",
      "outputs": [
        {
          "name": "price",
          "type": "uint256"
        }
      ],
      "payable": false,
      "stateMutability": "pure",
      "type": "function"
    },
    {
      "constant": true,
      "inputs": [
        {
          "name": "_usage",
          "type": "uint256"
        },
        {
          "name": "_recommendedUsage",
          "type": "uint256"
        },
        {
          "name": "_litre_price",
          "type": "uint8"
        },
        {
          "name": "_penaltyFactor",
          "type": "uint8"
        }
      ],
      "name": "increasePenaltyFactor",
      "outputs": [
        {
          "name": "factor",
          "type": "uint256"
        }
      ],
      "payable": false,
      "stateMutability": "pure",
      "type": "function"
    },
    {
      "constant": true,
      "inputs": [
        {
          "name": "_usage",
          "type": "uint256"
        },
        {
          "name": "_price",
          "type": "uint256"
        },
        {
          "name": "_factor",
          "type": "uint256"
        }
      ],
      "name": "calculateOutstandingBalance",
      "outputs": [
        {
          "name": "amount",
          "type": "uint256"
        }
      ],
      "payable": false,
      "stateMutability": "pure",
      "type": "function"
    }
  ],
  "bytecode": "0x6060604052341561000f57600080fd5b6103cf8061001e6000396000f300606060405260043610610099576000357c0100000000000000000000000000000000000000000000000000000000900463ffffffff16806309bbcf741461009e5780632920c21c146100e85780634251e8d9146101145780634741c84e146101495780634f029e411461018a5780636340a686146101bf57806367ed3862146101f457806387d41e3714610235578063f3f99e4c14610282575b600080fd5b6100d2600480803590602001909190803590602001909190803590602001909190803560ff169060200190919050506102c0565b6040518082815260200191505060405180910390f35b6100fe60048080359060200190919050506102dd565b6040518082815260200191505060405180910390f35b61013360048080359060200190919080359060200190919050506102f3565b6040518082815260200191505060405180910390f35b610174600480803590602001909190803590602001909190803560ff16906020019091905050610300565b6040518082815260200191505060405180910390f35b6101a96004808035906020019091908035906020019091905050610313565b6040518082815260200191505060405180910390f35b6101de6004808035906020019091908035906020019091905050610320565b6040518082815260200191505060405180910390f35b61021f600480803590602001909190803560ff1690602001909190803590602001909190505061033c565b6040518082815260200191505060405180910390f35b61026c600480803590602001909190803590602001909190803560ff1690602001909190803560ff16906020019091905050610357565b6040518082815260200191505060405180910390f35b6102aa600480803590602001909190803590602001909190803590602001909190505061038b565b6040518082815260200191505060405180910390f35b60008160ff166102d08486610320565b8602029050949350505050565b60006064828115156102eb57fe5b049050919050565b6000818303905092915050565b60008284038260ff160290509392505050565b6000818302905092915050565b60006305265c0083830381151561033357fe5b04905092915050565b60008161034d8460ff1686036102dd565b0290509392505050565b60008484101561037e578160ff168481151561036f57fe5b0485038360ff16029050610383565b600090505b949350505050565b600061039a82840185026102dd565b905093925050505600a165627a7a7230582005e18563a5abeb467bd9dbfdede4fdca9e94504d041e4361a1fed983e5fd57090029",
  "source": "pragma solidity ^0.4.11;\r\n\r\n/*\r\n * Zander Labuschagne se baie werk volg Hier\r\n * 23585137@protonmail.ch | zander.labuschagne@protonmail.ch\r\n * Hierdie kode word gepubliseer onder die BSD-3 nuwe of hersiende lisensie\r\n */\r\n\r\nlibrary HouseholdLibrary {\r\n\tfunction calculateBounty(uint256 _recommendedCumulativeUsage, uint256 _userCumulativeUsage) public pure returns (uint256 bounty) {\r\n\t\treturn _recommendedCumulativeUsage - _userCumulativeUsage;\r\n\t}\r\n\r\n\tfunction calculateVoucher(uint256 _bounty, uint256 _factor) public pure returns (uint256 voucher) {\r\n\t\treturn _bounty * _factor;\r\n\t}\r\n\r\n\tfunction increasePrice(uint256 _usage, uint256 _recommendedUsage, uint8 _litre_price) public pure returns (uint256 newPrice) {\r\n\t\treturn _litre_price * (_usage - _recommendedUsage);\r\n\t}\r\n\r\n\t/*function getAmountToPay(uint256 _usage, uint256 _price) public pure returns (uint256 amount) {\r\n\t\treturn _usage * _price;\r\n\t}*/\r\n\r\n\tfunction centToRand(uint256 _cents) public pure returns (uint256 rands) {\r\n\t\treturn _cents / 100;\r\n\t}\r\n\r\n\tfunction increasePenaltyFactor(uint256 _usage, uint256 _recommendedUsage, uint8 _litre_price, uint8 _penaltyFactor) public pure returns (uint256 factor) {\r\n\t\tif(_recommendedUsage < _usage)\r\n\t\t\treturn _litre_price * (_usage - _recommendedUsage / _penaltyFactor);\r\n\t\telse\r\n\t\t\treturn 0;\r\n\t}\r\n\r\n\tfunction calculateOutstandingBalance(uint256 _usage, uint256 _price, uint256 _factor) public pure returns (uint256 amount) {\r\n\t\treturn centToRand(_usage * (_price + _factor));\r\n\t}\r\n\r\n\tfunction lowerPriceReq(uint256 _price, uint8 _litre_price, uint256 _decreasePricePaymentFactor) public pure returns (uint256 price) {\r\n\t\treturn centToRand((_price - _litre_price)) * _decreasePricePaymentFactor;\r\n\t}\r\n\r\n\tfunction getTimeDifferenceDays(uint256 _time1, uint256 _time2) public pure returns (uint256 timeDifference) {\r\n\t\treturn (_time2 - _time1) / (1000 * 60 * 60 * 24);\r\n\t}\r\n\r\n\tfunction calculateRecommendedCumulativeUsage(uint256 _recommendedDailyUsage, uint256 _current, uint256 _previous, uint8 _deps) returns (uint256 cumulativeUsage){\r\n\t\treturn _recommendedDailyUsage * getTimeDifferenceDays(_previous, _current) * _deps;\r\n\t}\r\n}\r\n",
  "sourcePath": "/home/zander/GitHub/watersavings-solidity/contracts/HouseholdLibrary.sol",
  "compiler": {
    "name": "solc",
    "version": "0.4.18+commit.9cf6e910.Emscripten.clang"
  },
  "schemaVersion": "1.0.1",
  "updatedAt": "2018-01-31T11:37:47.741Z"
}