{
  "contractName": "HouseholdContract",
  "abi": [
    {
      "constant": false,
      "inputs": [
        {
          "name": "_factor",
          "type": "uint256"
        }
      ],
      "name": "lowerPrice",
      "outputs": [
        {
          "name": "r_price",
          "type": "uint256"
        }
      ],
      "payable": false,
      "stateMutability": "nonpayable",
      "type": "function"
    },
    {
      "constant": true,
      "inputs": [],
      "name": "getValue",
      "outputs": [
        {
          "name": "val",
          "type": "uint256"
        }
      ],
      "payable": false,
      "stateMutability": "view",
      "type": "function"
    },
    {
      "constant": true,
      "inputs": [],
      "name": "getLowerPriceReq",
      "outputs": [
        {
          "name": "amount",
          "type": "uint256"
        }
      ],
      "payable": false,
      "stateMutability": "view",
      "type": "function"
    },
    {
      "constant": false,
      "inputs": [],
      "name": "setInitPrice",
      "outputs": [],
      "payable": false,
      "stateMutability": "nonpayable",
      "type": "function"
    },
    {
      "constant": false,
      "inputs": [
        {
          "name": "_litre_price",
          "type": "uint8"
        }
      ],
      "name": "setLitrePrice",
      "outputs": [
        {
          "name": "r_litre_price",
          "type": "uint8"
        }
      ],
      "payable": false,
      "stateMutability": "nonpayable",
      "type": "function"
    },
    {
      "constant": true,
      "inputs": [],
      "name": "getTime",
      "outputs": [
        {
          "name": "r_time",
          "type": "uint256"
        }
      ],
      "payable": false,
      "stateMutability": "view",
      "type": "function"
    },
    {
      "constant": false,
      "inputs": [],
      "name": "resetWaterUsage",
      "outputs": [
        {
          "name": "usage",
          "type": "uint256"
        }
      ],
      "payable": false,
      "stateMutability": "nonpayable",
      "type": "function"
    },
    {
      "constant": false,
      "inputs": [
        {
          "name": "_deps",
          "type": "uint8"
        }
      ],
      "name": "setNumberOfDependants",
      "outputs": [
        {
          "name": "deps",
          "type": "uint8"
        }
      ],
      "payable": false,
      "stateMutability": "nonpayable",
      "type": "function"
    },
    {
      "constant": false,
      "inputs": [
        {
          "name": "_factor",
          "type": "uint256"
        }
      ],
      "name": "setLowerPriceReqFactor",
      "outputs": [
        {
          "name": "factor",
          "type": "uint256"
        }
      ],
      "payable": false,
      "stateMutability": "nonpayable",
      "type": "function"
    },
    {
      "constant": false,
      "inputs": [
        {
          "name": "_id",
          "type": "string"
        }
      ],
      "name": "setId",
      "outputs": [
        {
          "name": "r_id",
          "type": "string"
        }
      ],
      "payable": false,
      "stateMutability": "nonpayable",
      "type": "function"
    },
    {
      "constant": true,
      "inputs": [
        {
          "name": "_recommendedDailyUsage",
          "type": "uint256"
        }
      ],
      "name": "getOutstandingBalance",
      "outputs": [
        {
          "name": "balance",
          "type": "uint256"
        }
      ],
      "payable": false,
      "stateMutability": "view",
      "type": "function"
    },
    {
      "constant": true,
      "inputs": [],
      "name": "getWaterUsage",
      "outputs": [
        {
          "name": "usage",
          "type": "uint256"
        }
      ],
      "payable": false,
      "stateMutability": "view",
      "type": "function"
    },
    {
      "constant": false,
      "inputs": [
        {
          "name": "_usage",
          "type": "uint256"
        }
      ],
      "name": "addWaterUsage",
      "outputs": [
        {
          "name": "usage",
          "type": "uint256"
        }
      ],
      "payable": false,
      "stateMutability": "nonpayable",
      "type": "function"
    },
    {
      "constant": false,
      "inputs": [],
      "name": "setTime",
      "outputs": [],
      "payable": false,
      "stateMutability": "nonpayable",
      "type": "function"
    },
    {
      "constant": false,
      "inputs": [
        {
          "name": "_penaltyFactor",
          "type": "uint8"
        }
      ],
      "name": "setPenaltyFactor",
      "outputs": [
        {
          "name": "factor",
          "type": "uint8"
        }
      ],
      "payable": false,
      "stateMutability": "nonpayable",
      "type": "function"
    },
    {
      "constant": false,
      "inputs": [
        {
          "name": "_recommendedDailyUsage",
          "type": "uint256"
        },
        {
          "name": "_bountyFactor",
          "type": "uint256"
        }
      ],
      "name": "pay",
      "outputs": [
        {
          "name": "r_voucher",
          "type": "uint256"
        },
        {
          "name": "r_amount",
          "type": "uint256"
        }
      ],
      "payable": false,
      "stateMutability": "nonpayable",
      "type": "function"
    },
    {
      "constant": true,
      "inputs": [],
      "name": "getBounty",
      "outputs": [
        {
          "name": "r_bounty",
          "type": "uint256"
        }
      ],
      "payable": false,
      "stateMutability": "view",
      "type": "function"
    },
    {
      "inputs": [],
      "payable": false,
      "stateMutability": "nonpayable",
      "type": "constructor"
    }
  ],
  "bytecode": "0x6060604052341561000f57600080fd5b61002c600161004d6401000000000261077a176401000000009004565b5061004861008164010000000002610722176401000000009004565b6100d9565b600081600560006101000a81548160ff021916908360ff160217905550600560009054906101000a900460ff169050919050565b600560009054906101000a900460ff1660ff16600360003373ffffffffffffffffffffffffffffffffffffffff1673ffffffffffffffffffffffffffffffffffffffff16815260200190815260200160002081905550565b611771806100e86000396000f3006060604052600436106100f1576000357c0100000000000000000000000000000000000000000000000000000000900463ffffffff1680630c3986e2146100f6578063209652551461012d57806329bdeeaa1461015657806340e94e8c1461017f578063500fb48914610194578063557ed1ba146101d457806355e88ec2146101fd5780637f6da7ff1461022657806387dd962d1461026657806387e4396c1461029d5780639b8fec3014610373578063c613d4fa146103aa578063cae7fbcc146103d3578063d9276a491461040a578063ea58f11b1461041f578063ef48eee61461045f578063f49bff7b146104a6575b600080fd5b341561010157600080fd5b61011760048080359060200190919050506104cf565b6040518082815260200191505060405180910390f35b341561013857600080fd5b61014061061d565b6040518082815260200191505060405180910390f35b341561016157600080fd5b610169610627565b6040518082815260200191505060405180910390f35b341561018a57600080fd5b610192610722565b005b341561019f57600080fd5b6101b8600480803560ff1690602001909190505061077a565b604051808260ff1660ff16815260200191505060405180910390f35b34156101df57600080fd5b6101e76107ae565b6040518082815260200191505060405180910390f35b341561020857600080fd5b6102106107f5565b6040518082815260200191505060405180910390f35b341561023157600080fd5b61024a600480803560ff16906020019091905050610880565b604051808260ff1660ff16815260200191505060405180910390f35b341561027157600080fd5b610287600480803590602001909190505061092e565b6040518082815260200191505060405180910390f35b34156102a857600080fd5b6102f8600480803590602001908201803590602001908080601f01602080910402602001604051908101604052809392919081815260200183838082843782019150505050505091905050610941565b6040518080602001828103825283818151815260200191508051906020019080838360005b8381101561033857808201518184015260208101905061031d565b50505050905090810190601f1680156103655780820380516001836020036101000a031916815260200191505b509250505060405180910390f35b341561037e57600080fd5b6103946004808035906020019091905050610a7c565b6040518082815260200191505060405180910390f35b34156103b557600080fd5b6103bd610eb0565b6040518082815260200191505060405180910390f35b34156103de57600080fd5b6103f46004808035906020019091905050610ef7565b6040518082815260200191505060405180910390f35b341561041557600080fd5b61041d610f84565b005b341561042a57600080fd5b610443600480803560ff16906020019091905050610fca565b604051808260ff1660ff16815260200191505060405180910390f35b341561046a57600080fd5b6104896004808035906020019091908035906020019091905050610fec565b604051808381526020018281526020019250505060405180910390f35b34156104b157600080fd5b6104b9611646565b6040518082815260200191505060405180910390f35b6000600560009054906101000a900460ff1660ff16600360003373ffffffffffffffffffffffffffffffffffffffff1673ffffffffffffffffffffffffffffffffffffffff168152602001908152602001600020541180156105835750600560009054906101000a900460ff1660ff16600360003373ffffffffffffffffffffffffffffffffffffffff1673ffffffffffffffffffffffffffffffffffffffff168152602001908152602001600020540382105b156105d65781600360003373ffffffffffffffffffffffffffffffffffffffff1673ffffffffffffffffffffffffffffffffffffffff168152602001908152602001600020600082825403925050819055505b600360003373ffffffffffffffffffffffffffffffffffffffff1673ffffffffffffffffffffffffffffffffffffffff168152602001908152602001600020549050919050565b6000600854905090565b600073__HouseholdLibrary______________________6367ed3862600360003373ffffffffffffffffffffffffffffffffffffffff1673ffffffffffffffffffffffffffffffffffffffff16815260200190815260200160002054600560009054906101000a900460ff166006546000604051602001526040518463ffffffff167c0100000000000000000000000000000000000000000000000000000000028152600401808481526020018360ff1660ff168152602001828152602001935050505060206040518083038186803b151561070257600080fd5b6102c65a03f4151561071357600080fd5b50505060405180519050905090565b600560009054906101000a900460ff1660ff16600360003373ffffffffffffffffffffffffffffffffffffffff1673ffffffffffffffffffffffffffffffffffffffff16815260200190815260200160002081905550565b600081600560006101000a81548160ff021916908360ff160217905550600560009054906101000a900460ff169050919050565b6000600460003373ffffffffffffffffffffffffffffffffffffffff1673ffffffffffffffffffffffffffffffffffffffff16815260200190815260200160002054905090565b600080600260003373ffffffffffffffffffffffffffffffffffffffff1673ffffffffffffffffffffffffffffffffffffffff16815260200190815260200160002081905550600260003373ffffffffffffffffffffffffffffffffffffffff1673ffffffffffffffffffffffffffffffffffffffff16815260200190815260200160002054905090565b600081600960003373ffffffffffffffffffffffffffffffffffffffff1673ffffffffffffffffffffffffffffffffffffffff16815260200190815260200160002060006101000a81548160ff021916908360ff160217905550600960003373ffffffffffffffffffffffffffffffffffffffff1673ffffffffffffffffffffffffffffffffffffffff16815260200190815260200160002060009054906101000a900460ff169050919050565b6000816006819055506006549050919050565b61094961168c565b81600160003373ffffffffffffffffffffffffffffffffffffffff1673ffffffffffffffffffffffffffffffffffffffff168152602001908152602001600020908051906020019061099c9291906116a0565b50600160003373ffffffffffffffffffffffffffffffffffffffff1673ffffffffffffffffffffffffffffffffffffffff1681526020019081526020016000208054600181600116156101000203166002900480601f016020809104026020016040519081016040528092919081815260200182805460018160011615610100020316600290048015610a705780601f10610a4557610100808354040283529160200191610a70565b820191906000526020600020905b815481529060010190602001808311610a5357829003601f168201915b50505050509050919050565b60008073__HouseholdLibrary______________________6309bbcf748442610aa36107ae565b600960003373ffffffffffffffffffffffffffffffffffffffff1673ffffffffffffffffffffffffffffffffffffffff16815260200190815260200160002060009054906101000a900460ff166000604051602001526040518563ffffffff167c0100000000000000000000000000000000000000000000000000000000028152600401808581526020018481526020018381526020018260ff1660ff16815260200194505050505060206040518083038186803b1515610b6357600080fd5b6102c65a03f41515610b7457600080fd5b50505060405180519050905073__HouseholdLibrary______________________63f3f99e4c600260003373ffffffffffffffffffffffffffffffffffffffff1673ffffffffffffffffffffffffffffffffffffffff16815260200190815260200160002054600360003373ffffffffffffffffffffffffffffffffffffffff1673ffffffffffffffffffffffffffffffffffffffff1681526020019081526020016000205473__HouseholdLibrary______________________6387d41e37600260003373ffffffffffffffffffffffffffffffffffffffff1673ffffffffffffffffffffffffffffffffffffffff1681526020019081526020016000205473__HouseholdLibrary______________________6309bbcf748b42610c986107ae565b600960003373ffffffffffffffffffffffffffffffffffffffff1673ffffffffffffffffffffffffffffffffffffffff16815260200190815260200160002060009054906101000a900460ff166000604051602001526040518563ffffffff167c0100000000000000000000000000000000000000000000000000000000028152600401808581526020018481526020018381526020018260ff1660ff16815260200194505050505060206040518083038186803b1515610d5857600080fd5b6102c65a03f41515610d6957600080fd5b50505060405180519050600560009054906101000a900460ff16600760009054906101000a900460ff166000604051602001526040518563ffffffff167c0100000000000000000000000000000000000000000000000000000000028152600401808581526020018481526020018360ff1660ff1681526020018260ff1660ff16815260200194505050505060206040518083038186803b1515610e0c57600080fd5b6102c65a03f41515610e1d57600080fd5b505050604051805190506000604051602001526040518463ffffffff167c010000000000000000000000000000000000000000000000000000000002815260040180848152602001838152602001828152602001935050505060206040518083038186803b1515610e8d57600080fd5b6102c65a03f41515610e9e57600080fd5b50505060405180519050915050919050565b6000600260003373ffffffffffffffffffffffffffffffffffffffff1673ffffffffffffffffffffffffffffffffffffffff16815260200190815260200160002054905090565b600081600260003373ffffffffffffffffffffffffffffffffffffffff1673ffffffffffffffffffffffffffffffffffffffff16815260200190815260200160002081905550600260003373ffffffffffffffffffffffffffffffffffffffff1673ffffffffffffffffffffffffffffffffffffffff168152602001908152602001600020549050919050565b42600460003373ffffffffffffffffffffffffffffffffffffffff1673ffffffffffffffffffffffffffffffffffffffff16815260200190815260200160002081905550565b600081600760006101000a81548160ff021916908360ff160217905550919050565b600080600080600080925073__HouseholdLibrary______________________6309bbcf74884261101b6107ae565b600960003373ffffffffffffffffffffffffffffffffffffffff1673ffffffffffffffffffffffffffffffffffffffff16815260200190815260200160002060009054906101000a900460ff166000604051602001526040518563ffffffff167c0100000000000000000000000000000000000000000000000000000000028152600401808581526020018481526020018381526020018260ff1660ff16815260200194505050505060206040518083038186803b15156110db57600080fd5b6102c65a03f415156110ec57600080fd5b505050604051805190509150600260003373ffffffffffffffffffffffffffffffffffffffff1673ffffffffffffffffffffffffffffffffffffffff168152602001908152602001600020548210151561133b5773__HouseholdLibrary______________________634251e8d983600260003373ffffffffffffffffffffffffffffffffffffffff1673ffffffffffffffffffffffffffffffffffffffff168152602001908152602001600020546000604051602001526040518363ffffffff167c0100000000000000000000000000000000000000000000000000000000028152600401808381526020018281526020019250505060206040518083038186803b15156111fa57600080fd5b6102c65a03f4151561120b57600080fd5b505050604051805190506000803373ffffffffffffffffffffffffffffffffffffffff1673ffffffffffffffffffffffffffffffffffffffff1681526020019081526020016000206000828254019250508190555073__HouseholdLibrary______________________634f029e416000803373ffffffffffffffffffffffffffffffffffffffff1673ffffffffffffffffffffffffffffffffffffffff16815260200190815260200160002054886000604051602001526040518363ffffffff167c0100000000000000000000000000000000000000000000000000000000028152600401808381526020018281526020019250505060206040518083038186803b151561131957600080fd5b6102c65a03f4151561132a57600080fd5b50505060405180519050925061147a565b73__HouseholdLibrary______________________634741c84e600260003373ffffffffffffffffffffffffffffffffffffffff1673ffffffffffffffffffffffffffffffffffffffff1681526020019081526020016000205484600560009054906101000a900460ff166000604051602001526040518463ffffffff167c0100000000000000000000000000000000000000000000000000000000028152600401808481526020018381526020018260ff1660ff168152602001935050505060206040518083038186803b151561141257600080fd5b6102c65a03f4151561142357600080fd5b50505060405180519050600360003373ffffffffffffffffffffffffffffffffffffffff1673ffffffffffffffffffffffffffffffffffffffff168152602001908152602001600020600082825401925050819055505b73__HouseholdLibrary______________________63f3f99e4c600260003373ffffffffffffffffffffffffffffffffffffffff1673ffffffffffffffffffffffffffffffffffffffff16815260200190815260200160002054600360003373ffffffffffffffffffffffffffffffffffffffff1673ffffffffffffffffffffffffffffffffffffffff16815260200190815260200160002054600080604051602001526040518463ffffffff167c010000000000000000000000000000000000000000000000000000000002815260040180848152602001838152602001828152602001935050505060206040518083038186803b151561157b57600080fd5b6102c65a03f4151561158c57600080fd5b5050506040518051905090506115a0610f84565b6115a86107f5565b508273__HouseholdLibrary______________________632920c21c836000604051602001526040518263ffffffff167c01000000000000000000000000000000000000000000000000000000000281526004018082815260200191505060206040518083038186803b151561161d57600080fd5b6102c65a03f4151561162e57600080fd5b50505060405180519050945094505050509250929050565b60008060003373ffffffffffffffffffffffffffffffffffffffff1673ffffffffffffffffffffffffffffffffffffffff16815260200190815260200160002054905090565b602060405190810160405280600081525090565b828054600181600116156101000203166002900490600052602060002090601f016020900481019282601f106116e157805160ff191683800117855561170f565b8280016001018555821561170f579182015b8281111561170e5782518255916020019190600101906116f3565b5b50905061171c9190611720565b5090565b61174291905b8082111561173e576000816000905550600101611726565b5090565b905600a165627a7a72305820664ceb36a916b08189c11572ddefbf284d2d2f4f95ce2ca23afb04288b7c83230029",
  "source": "pragma solidity ^0.4.11;\r\n\r\nimport \"./HouseholdLibrary.sol\";\r\n\r\n/*\r\n * Zander Labuschagne se baie werk volg Hier\r\n * 23585137@protonmail.ch | zander.labuschagne@protonmail.ch\r\n * Hierdie kode word gepubliseer onder die BSD-3 nuwe of hersiende lisensie\r\n */\r\n\r\n//HouseholdContract.new().then(function(res) { sc = HouseholdContract.at(res.address) }) //tik die lyntji in truffle console om die adres te kry dan sc.xxxxxx kan methods execute\r\n\r\ncontract HouseholdContract{\r\n\r\n\t//credits/bounty van water gespaar\r\n\tmapping (address => uint256) bounty;\r\n\t//id number van persoon\r\n\tmapping (address => string) id;\r\n\t//hoeveelheid die huishouding al gebruik het\r\n\tmapping (address => uint256) cumulativeUsage;\r\n\r\n\tmapping (address => uint256) price;\r\n\r\n\tmapping (address => uint256) time;\r\n\r\n\tuint8 litre_price;\r\n\r\n\tuint256 lowerPriceReqFactor;\r\n\r\n\tuint8 penaltyFactor;\r\n\r\n\tuint256 value;\r\n\r\n\tmapping (address => uint8) numberOfDependants;\r\n\r\n\tfunction HouseholdContract() {\r\n\t\tsetLitrePrice(1);\r\n\t\tsetInitPrice();\r\n\t}\r\n\r\n\t/*\r\n\t * To change the c/litre if desired\r\n\t**/\r\n\tfunction setLitrePrice(uint8 _litre_price) public returns (uint8 r_litre_price) {\r\n\t\tlitre_price = _litre_price;\r\n\t\treturn litre_price;\r\n\t}\r\n\r\n\t/*\r\n\t * Set the SA ID number to link the contract instance to the person responsible for the HouseHoldContract\r\n\t**/\r\n\tfunction setId(string _id) public returns (string r_id) {\r\n\t\tid[msg.sender] = _id;\r\n\t\treturn id[msg.sender];\r\n\t}\r\n\r\n\t/*\r\n\t * Assign the default price of water to the contract instance\r\n\t**/\r\n\tfunction setInitPrice() public {\r\n\t\tprice[msg.sender] = litre_price;\r\n\t}\r\n\r\n\t/*\r\n\t* Called hourly or daily to update water _usage\r\n\t* Called from water metre\r\n\t**/\r\n\tfunction addWaterUsage(uint256 _usage) public returns (uint256 usage) {\r\n\t\tcumulativeUsage[msg.sender] = _usage;\r\n\t\treturn cumulativeUsage[msg.sender];\r\n\t}\r\n\r\n\t/**\r\n\t* the cumulative water usage resets every month or when the user pays\r\n\t**/\r\n\tfunction resetWaterUsage() public returns (uint256 usage) {\r\n\t\tcumulativeUsage[msg.sender] = 0;\r\n\t\t//bounty[msg.sender] = 0;\r\n\t\t//resets the Pi.... --assumption\r\n\t\treturn cumulativeUsage[msg.sender];\r\n\t}\r\n\r\n\t/*\r\n\t* calculate _recommendedCumulativeUsage from frontend\r\n\t* Pay totals price and convert remainder to bounty and return voucher as well\r\n\t*/\r\n\tfunction pay(uint256 _recommendedDailyUsage, uint256 _bountyFactor) public returns (uint256 r_voucher, uint256 r_amount) {\r\n\t\tuint256 voucher = 0;\r\n\t\tuint256 _recommendedCumulativeUsage = HouseholdLibrary.calculateRecommendedCumulativeUsage(_recommendedDailyUsage, block.timestamp, getTime(), numberOfDependants[msg.sender]);\r\n\t\tif(_recommendedCumulativeUsage >= cumulativeUsage[msg.sender]) {\r\n\t\t\tbounty[msg.sender] += HouseholdLibrary.calculateBounty(_recommendedCumulativeUsage, cumulativeUsage[msg.sender]);\r\n\t\t\tvoucher = HouseholdLibrary.calculateVoucher(bounty[msg.sender], _bountyFactor);\r\n\t\t}\r\n\t\telse\r\n\t\t\tprice[msg.sender] += HouseholdLibrary.increasePrice(cumulativeUsage[msg.sender], _recommendedCumulativeUsage, litre_price);\r\n\t\tuint256 amount = HouseholdLibrary.calculateOutstandingBalance(cumulativeUsage[msg.sender], price[msg.sender], 0);\r\n\t\tsetTime();\r\n\t\tresetWaterUsage();\r\n\t\treturn (voucher, HouseholdLibrary.centToRand(amount));\r\n\t}\r\n\r\n\t/*\r\n\t * return the amount it would cost in R at the moment to pay the water bill\r\n\t**/\r\n\tfunction getOutstandingBalance(uint256 _recommendedDailyUsage) public view returns (uint256 balance) {\r\n\t\tuint256 _recommendedCumulativeUsage = HouseholdLibrary.calculateRecommendedCumulativeUsage(_recommendedDailyUsage, block.timestamp, getTime(), numberOfDependants[msg.sender]);\r\n\t\t/*value =*/ return HouseholdLibrary.calculateOutstandingBalance(cumulativeUsage[msg.sender], price[msg.sender], HouseholdLibrary.increasePenaltyFactor(cumulativeUsage[msg.sender], HouseholdLibrary.calculateRecommendedCumulativeUsage(_recommendedDailyUsage, block.timestamp, getTime(), numberOfDependants[msg.sender]), litre_price, penaltyFactor));\r\n\r\n\t\t//return value;\r\n\t}\r\n\r\n\t/*\r\n\t* function to lower price if it is high by paying much more tha n usual price\r\n\t**/\r\n\tfunction lowerPrice(uint256 _factor) public returns (uint256 r_price) {\r\n\t\tif(price[msg.sender] > litre_price && _factor < (price[msg.sender] - litre_price)) {\r\n\t\t\tprice[msg.sender] -= _factor;\r\n\t\t}\r\n\r\n\t\treturn price[msg.sender];\r\n\t}\r\n\r\n\t/*\r\n\t * If one wants to preview the amount to be paid in R in order to lower the price/litre if it were raised due to increasePenaltyFactor\r\n\t**/\r\n\tfunction getLowerPriceReq() public view returns (uint256 amount) {\r\n\t\treturn HouseholdLibrary.lowerPriceReq(price[msg.sender], litre_price, lowerPriceReqFactor);\r\n\t}\r\n\r\n\t/*\r\n\t * Sets the amount in R which users pay to lower the penalty payments per litre\r\n\t**/\r\n\tfunction setLowerPriceReqFactor(uint256 _factor) public returns (uint256 factor) {\r\n\t\tlowerPriceReqFactor = _factor;\r\n\t\treturn lowerPriceReqFactor;\r\n\t}\r\n\r\n\t/*\r\n\t * this is the amount the user pays per litre he overused(as well as for future payments) it is the amount of litres per cent ex: 5 would be paying 1c extra for every addisional 5l used\r\n\t * Ex; 1 would then also be paying 1c extra for every addisional litre used\r\n\t * Ex: 2 would then also be paying 1c extra for every addisional 2l used\r\n\t * This should probably be inverted but the current price is 1c per litre and 1l per 1c decrease is actually a lot\r\n\t**/\r\n\tfunction setPenaltyFactor(uint8 _penaltyFactor) public returns (uint8 factor) {\r\n\t\tpenaltyFactor = _penaltyFactor;\r\n\t}\r\n\r\n\t/*\r\n\t * Get current water usage for personal interests\r\n\t**/\r\n\tfunction getWaterUsage() public view returns (uint256 usage) {\r\n\t\treturn cumulativeUsage[msg.sender];\r\n\t}\r\n\r\n\t/*\r\n\t * Get the current bounty for testing purposes\r\n\t**/\r\n\tfunction getBounty() public view returns (uint256 r_bounty) {\r\n\t\treturn bounty[msg.sender];\r\n\t}\r\n\r\n\t/*\r\n\t * Called when payment is made to save when the user last made a payment\r\n\t**/\r\n\tfunction setTime() {\r\n\t\ttime[msg.sender] = block.timestamp;\r\n\t}\r\n\r\n\t/*\r\n\t * Accessor for the time mapping\r\n\t*/\r\n\tfunction getTime() public view returns (uint r_time) {\r\n\t\treturn time[msg.sender];\r\n\t}\r\n\r\n\t/*\r\n\t * Mutator for number of dependants to set the number of people in the household thats using the water on this one address/account\r\n\t * Only called on registration\r\n\t**/\r\n\tfunction setNumberOfDependants(uint8 _deps) returns (uint8 deps) {\r\n\t\tnumberOfDependants[msg.sender] = _deps;\r\n\t\treturn numberOfDependants[msg.sender];\r\n\t}\r\n\r\n\t/*\r\n\t* just for testing\r\n\t*/\r\n\tfunction getValue() public view returns (uint256 val) {\r\n\t\treturn value;\r\n\t}\r\n}\r\n",
  "sourcePath": "/home/zander/GitHub/watersavings-solidity/contracts/HouseholdContract.sol",
  "compiler": {
    "name": "solc",
    "version": "0.4.18+commit.9cf6e910.Emscripten.clang"
  },
  "schemaVersion": "1.0.1",
  "updatedAt": "2018-01-31T11:37:47.743Z"
}