{
  "contractName": "HouseholdLibrary",
  "abi": [
    {
      "constant": false,
      "inputs": [
        {
          "name": "_recommendedCumulativeUsage",
          "type": "uint256"
        },
        {
          "name": "_userCumulativeUsage",
          "type": "uint256"
        }
      ],
      "name": "calculateBounty",
      "outputs": [
        {
          "name": "bounty",
          "type": "uint256"
        }
      ],
      "payable": false,
      "stateMutability": "nonpayable",
      "type": "function"
    },
    {
      "constant": false,
      "inputs": [
        {
          "name": "_bounty",
          "type": "uint256"
        },
        {
          "name": "_factor",
          "type": "uint256"
        }
      ],
      "name": "calculateVoucher",
      "outputs": [
        {
          "name": "voucher",
          "type": "uint256"
        }
      ],
      "payable": false,
      "stateMutability": "nonpayable",
      "type": "function"
    }
  ],
  "bytecode": "0x6060604052341561000f57600080fd5b60fa8061001d6000396000f3006060604052600436106049576000357c0100000000000000000000000000000000000000000000000000000000900463ffffffff1680634251e8d914604e5780634f029e41146081575b600080fd5b606b600480803590602001909190803590602001909190505060b4565b6040518082815260200191505060405180910390f35b609e600480803590602001909190803590602001909190505060c1565b6040518082815260200191505060405180910390f35b6000818303905092915050565b60008183029050929150505600a165627a7a723058207dabb428165db0a63226e67920c7d3a410e669300a9cc22916dca1a7977aa1d40029",
  "source": "pragma solidity ^0.4.11;\r\n\r\nlibrary HouseholdLibrary {\r\n\tfunction calculateBounty(uint256 _recommendedCumulativeUsage, uint256 _userCumulativeUsage) returns (uint256 bounty) {\r\n\t\treturn _recommendedCumulativeUsage - _userCumulativeUsage;\r\n\t}\r\n\r\n\tfunction calculateVoucher(uint256 _bounty, uint256 _factor) returns (uint256 voucher){\r\n\t\treturn _bounty * _factor;\r\n\t}\r\n}\r\n\r\ncontract HouseholdContract{\r\n\r\n\t//credits/bounty van water gespaar\r\n\tmapping (address => uint256) bounty;\r\n\t//id number van persoon\r\n\tmapping (address => string) id;\r\n\t//hoeveelheid die huishouding al gebruik het\r\n\tmapping (address => uint256) cumulativeUsage;\r\n\r\n\t/**\r\n\t* TODO: add stuff\r\n\t**/\r\n\tfunction HouseholdContract() {\r\n\r\n\t}\r\n\r\n\t/*\r\n\t* Called hourly or daily to update water _usage\r\n\t**/\r\n\tfunction addWaterUsage(uint256 _usage, address _user) returns (uint256) {\r\n\t\tcumulativeUsage[_user] = _usage;\r\n\t\treturn cumulativeUsage[_user];\r\n\t}\r\n\r\n\t/*\r\n\t* Called once a month, but updated regularly offchain\r\n\t* calculate _recommendedCumulativeUsage from frontend\r\n\t* Pay totals price and convert remainder to bounty\r\n\t*/\r\n\tfunction getBounty(uint256 _recommendedCumulativeUsage, address _user, uint256 _bountyFactor) returns (uint256 voucher) {\r\n\t\tbounty[_user] = HouseholdLibrary.calculateBounty(_recommendedCumulativeUsage, cumulativeUsage[_user]);\r\n\t\treturn HouseholdLibrary.calculateVoucher(bounty[_user], _bountyFactor);\r\n\t}\r\n}\r\n",
  "sourcePath": "/home/zander/GitHub/watersavings-solidity/contracts/HouseholdContract.sol",
  "compiler": {
    "name": "solc",
    "version": "0.4.18+commit.9cf6e910.Emscripten.clang"
  },
  "schemaVersion": "1.0.1",
  "updatedAt": "2018-01-29T14:34:21.823Z"
}