{
  "contractName": "HouseholdLibrary",
  "abi": [
    {
      "constant": true,
      "inputs": [
        {
          "name": "_recommendedCumulativeUsage",
          "type": "uint256"
        },
        {
          "name": "_userCumulativeUsage",
          "type": "uint256"
        }
      ],
      "name": "calculateBounty",
      "outputs": [
        {
          "name": "bounty",
          "type": "uint256"
        }
      ],
      "payable": false,
      "stateMutability": "pure",
      "type": "function"
    },
    {
      "constant": true,
      "inputs": [
        {
          "name": "_bounty",
          "type": "uint256"
        },
        {
          "name": "_factor",
          "type": "uint256"
        }
      ],
      "name": "calculateVoucher",
      "outputs": [
        {
          "name": "voucher",
          "type": "uint256"
        }
      ],
      "payable": false,
      "stateMutability": "pure",
      "type": "function"
    }
  ],
  "bytecode": "0x6060604052341561000f57600080fd5b60fa8061001d6000396000f3006060604052600436106049576000357c0100000000000000000000000000000000000000000000000000000000900463ffffffff1680634251e8d914604e5780634f029e41146081575b600080fd5b606b600480803590602001909190803590602001909190505060b4565b6040518082815260200191505060405180910390f35b609e600480803590602001909190803590602001909190505060c1565b6040518082815260200191505060405180910390f35b6000818303905092915050565b60008183029050929150505600a165627a7a7230582070c72ca47b5860d7a24a572a32e71d1079b4f25fa59ac9cfd932333ab10af4ba0029",
  "source": "pragma solidity ^0.4.11;\r\n\r\nlibrary HouseholdLibrary {\r\n\tfunction calculateBounty(uint256 _recommendedCumulativeUsage, uint256 _userCumulativeUsage) public pure returns (uint256 bounty) {\r\n\t\treturn _recommendedCumulativeUsage - _userCumulativeUsage;\r\n\t}\r\n\r\n\tfunction calculateVoucher(uint256 _bounty, uint256 _factor) public pure returns (uint256 voucher) {\r\n\t\treturn _bounty * _factor;\r\n\t}\r\n}\r\n",
  "sourcePath": "/home/nicolaas/hackathon/contracts/HouseholdLibrary.sol",
  "compiler": {
    "name": "solc",
    "version": "0.4.18+commit.9cf6e910.Emscripten.clang"
  },
  "schemaVersion": "1.0.1",
  "updatedAt": "2018-01-31T08:15:38.313Z"
}