{
  "contractName": "Master",
  "abi": [
    {
      "constant": true,
      "inputs": [
        {
          "name": "msg",
          "type": "string"
        }
      ],
      "name": "showMessage",
      "outputs": [],
      "payable": false,
      "stateMutability": "view",
      "type": "function"
    },
    {
      "anonymous": false,
      "inputs": [
        {
          "indexed": false,
          "name": "inMsg",
          "type": "string"
        }
      ],
      "name": "MsgEvent",
      "type": "event"
    }
  ],
  "bytecode": "0x6060604052341561000f57600080fd5b61016e8061001e6000396000f300606060405260043610610041576000357c0100000000000000000000000000000000000000000000000000000000900463ffffffff1680637b01b10214610046575b600080fd5b341561005157600080fd5b6100a1600480803590602001908201803590602001908080601f016020809104026020016040519081016040528093929190818152602001838380828437820191505050505050919050506100a3565b005b7f3d1ed332e4902cd7c5e7542daf6b9ccc69819a1e355ea62b10bce6ffdd8ee39f816040518080602001828103825283818151815260200191508051906020019080838360005b838110156101055780820151818401526020810190506100ea565b50505050905090810190601f1680156101325780820380516001836020036101000a031916815260200191505b509250505060405180910390a1505600a165627a7a7230582061601ee6df8b7efea7fb27fdf437bc3b0551a7282aa92a433953e4fd4530d9a80029",
  "source": "pragma solidity ^0.4.4;\n\ncontract Master {\n\n  event MsgEvent(string inMsg);\n\n  function showMessage(string msg) public view {\n    MsgEvent(msg);\n  }\n/*\n  function getCred(uint credIn) public returns (uint) {\n    Cred(credIn);\n  }*/\n}\n",
  "sourcePath": "/home/nicolaas/hackathon/contracts/Master.sol",
  "compiler": {
    "name": "solc",
    "version": "0.4.18+commit.9cf6e910.Emscripten.clang"
  },
  "schemaVersion": "1.0.1",
  "updatedAt": "2018-01-30T16:33:48.000Z"
}