{
  "contractName": "Node",
  "abi": [
    {
      "constant": false,
      "inputs": [
        {
          "name": "end",
          "type": "bool"
        }
      ],
      "name": "updateCredits",
      "outputs": [],
      "payable": false,
      "stateMutability": "nonpayable",
      "type": "function"
    },
    {
      "constant": true,
      "inputs": [
        {
          "name": "msg",
          "type": "string"
        }
      ],
      "name": "showMessage",
      "outputs": [],
      "payable": false,
      "stateMutability": "view",
      "type": "function"
    },
    {
      "constant": false,
      "inputs": [
        {
          "name": "add",
          "type": "uint256"
        }
      ],
      "name": "getPrice",
      "outputs": [],
      "payable": false,
      "stateMutability": "nonpayable",
      "type": "function"
    },
    {
      "anonymous": false,
      "inputs": [
        {
          "indexed": false,
          "name": "cred",
          "type": "uint256"
        }
      ],
      "name": "Cred",
      "type": "event"
    },
    {
      "anonymous": false,
      "inputs": [
        {
          "indexed": false,
          "name": "add",
          "type": "uint256"
        }
      ],
      "name": "Price",
      "type": "event"
    },
    {
      "anonymous": false,
      "inputs": [
        {
          "indexed": false,
          "name": "inMsg",
          "type": "string"
        }
      ],
      "name": "MsgEvent",
      "type": "event"
    }
  ],
  "bytecode": "0x6060604052341561000f57600080fd5b61024e8061001e6000396000f300606060405260043610610057576000357c0100000000000000000000000000000000000000000000000000000000900463ffffffff1680631ae086421461005c5780637b01b10214610081578063e7572230146100de575b600080fd5b341561006757600080fd5b61007f60048080351515906020019091905050610101565b005b341561008c57600080fd5b6100dc600480803590602001908201803590602001908080601f0160208091040260200160405190810160405280939291908181526020018383808284378201915050505050509190505061013c565b005b34156100e957600080fd5b6100ff60048080359060200190919050506101db565b005b7f6c9841fdb06b454b853ae270ea640f471b07ad94ba59f8fc3451bc720eab50cf60056040518082815260200191505060405180910390a150565b7f3d1ed332e4902cd7c5e7542daf6b9ccc69819a1e355ea62b10bce6ffdd8ee39f816040518080602001828103825283818151815260200191508051906020019080838360005b8381101561019e578082015181840152602081019050610183565b50505050905090810190601f1680156101cb5780820380516001836020036101000a031916815260200191505b509250505060405180910390a150565b80600054016000819055507f63f32f63810afda7c9be9643f9fa73ee3f39a9fd8bb35775a2b0d73e48ed9bed6000546040518082815260200191505060405180910390a1505600a165627a7a72305820a3e95d505b7ecd31fb2efa816e72e3b74b94a222f2c5de4a4911101717b066040029",
  "source": "pragma solidity ^0.4.4;\n\nimport \"./Master.sol\";\n\ncontract Node is Master {\n  uint private Usage;\n  uint private Credits;\n\n//  Ek het die goed uit gecomment met die master ding...Nie meer nie hehe\n  event Cred(uint cred);\n  event Price(uint add);\n\n  function getPrice(uint add) public {\n    Usage = Usage + add;\n    Price(Usage);\n  }\n\n  //Verander al die goed dat dit in die library gedoen word.\n  function updateCredits(bool end) public {\n    /*\n    if (end) {\n      uint temp = Usage;\n      Usage = 0;\n      return temp;\n    }\n    */\n    Cred(5);\n  }\n}\n",
  "sourcePath": "/home/nicolaas/hackathon/contracts/Node.sol",
  "compiler": {
    "name": "solc",
    "version": "0.4.18+commit.9cf6e910.Emscripten.clang"
  },
  "schemaVersion": "1.0.1",
  "updatedAt": "2018-01-30T16:33:48.001Z"
}